:10C000003DB8F39600000000200000000CFF010086
:10C010000000000000000000000000000000000020
:10C020000000042021C100007DC100007FC100008C
:10C0300081C1000083C1000085C100000000000034
:10C040000000000000000000000000007BE3000092
:10C0500089C1000000000000C1E30000EBE3000024
:10C060008FC100008FC100008FC100008FC1000090
:10C070008FC100008FC100008FC100008FC1000080
:10C080008FC100008FC100008FC100008FC1000070
:10C090008FC100008FC100008FC100008FC1000060
:10C0A0008FC100008FC100008FC100008FC1000050
:10C0B0008FC100008FC100008FC100008FC1000040
:10C0C0008FC100008FC100008FC100008FC1000030
:10C0D0008FC100008FC100000000000000000000C0
:10C0E0008FC100008FC100008FC100008FC1000010
:10C0F0008FC100008FC100008FC100008FC1000000
:10C100008FC100008FC100008FC10000000000003F
:10C110008FC1000000000000000000008FC100007F
:10C120004FF000000C4A0D4B9A42BCBF42F8040B82
:10C13000FAE70B490B4A0C4B9B1A03DD043BC8582A
:10C14000D050FBDC09480A4900F022F80948804732
:10C1500000F044F80848004748020020C04700208B
:10C1600008BE02000001002024020020C047002079
:10C1700050FE032059C300005DC40000FEE7FEE747
:10C18000FEE7FEE7FEE7FEE7FEE7FEE7FEE7FEE787
:10C19000024B186059609860704700BF0001002092
:10C1A000031E09DB0C4A90685268121A9A420FDB90
:10C1B0000344094A93607047074A90680344126831
:10C1C000934202D3044A936070474FF0FF307047A8
:10C1D0004FF0FF30704700BF000100204FF0804358
:10C1E0000122C3F878257047024B186800F001005F
:10C1F000704700BFF0ED00E008B5FFF7F5FF00B1B4
:10C2000001BEBFF34F8F0549CA6802F4E062044BD8
:10C210001343CB60BFF34F8F00BFFDE700ED00E09D
:10C220000400FA054FF08043D3F818240F4B134055
:10C23000B3F1011F18D04FF080430122DA600021D2
:10C24000C3F80411C3F818259A604FF08043D3F85F
:10C250000431002BF9D04FF08043D3F81824034B5E
:10C260001340B3F1011FF0D1704700BF030001007C
:10C27000064B1B68082B01D000207047044B1B683D
:10C280000BB1002070470120704700BF3001001043
:10C2900034010010064B1B68082B01D000207047AA
:10C2A000044B1B680BB1002070470120704700BF92
:10C2B0003001001034010010064B1B68082B01D020
:10C2C00000207047044B1B680BB100207047012011
:10C2D000704700BF3001001034010010064B1B688E
:10C2E000082B01D000207047044B1B680BB10020C5
:10C2F00070470120704700BF30010010340100106A
:10C30000064B1B68082B01D000207047044B1B68AC
:10C310000BB1002070470120704700BF30010010B2
:10C3200034010010064B1B68082B01D00020704719
:10C33000044B1B680BB1002070470120704700BF01
:10C340003001001034010010014B024A1A6070479E
:10C350000C0100200090D00308B5FFF789FF40B121
:10C360004FF080430022C3F80C21C3F81021C3F81A
:10C370003825FFF78FFF10B12D4B2E4A1A60FFF7BB
:10C380009BFF18B12C4BFB22C3F81825FFF7A6FF23
:10C3900048B12A490B6823F00F03294A126802F0BA
:10C3A0000F0213430B60FFF7ABFF18B1254B4FF49F
:10C3B00000721A60FFF7B6FF10B1234B234A1A60D0
:10C3C0004FF01023D3F80C3213F0010F04D1FFF714
:10C3D000BBFF00F029F908BD1D4B0122C3F804255D
:10C3E0001B4BD3F80034002BFAD04FF01022D2F8B8
:10C3F0000C3223F00103C2F80C32154BD3F8003491
:10C40000002BFAD0124B0022C3F80425104BD3F8AE
:10C410000034002BFAD0BFF34F8F0E49CA6802F4E4
:10C42000E0620D4B1343CB60BFF34F8F00BFFDE7BE
:10C430008C5600404881030000F00040E40E0040AC
:10C44000580200104096024000960240000404008A
:10C4500000E0014000ED00E00400FA0508B50348E3
:10C4600000F006FA00F06CFA08BD00BFA9C5000094
:10C470007047000008B50346024A0121002003F07E
:10C4800077FB08BDF0AC020000B583B0694601201F
:10C4900013F012FD38B90DF1010013F027FD60B95A
:10C4A00003B05DF804FBFFF79FFE00B101BE00235F
:10C4B0001A461946184600F0D1F8FFF795FE00B16C
:10C4C00001BE00231A461946184600F0C7F80000BE
:10C4D00010B59EB000211B911C91ADF87410022480
:10C4E0008DF86D40602203A801F0EAFF8DF80C4042
:10C4F00001238DF82F3080238DF82E30184B0A93AE
:10C500000D238DF82C3001238DF82D3003A80EF06B
:10C51000F7FC88B9134A0121002003F029FB002110
:10C520000191114B00931BAB42F2107201200EF0EF
:10C5300035FC58B91EB010BDFFF756FE00B101BE64
:10C5400000231A461946184600F088F8FFF74CFEFB
:10C5500000B101BE00231A461946184600F07EF8C5
:10C56000C4AC0200D4AC020079C5000008B5FFF7E6
:10C570008BFFFFF7ADFF08BD08B50378092B06D088
:10C58000074A0321002003F0F3FA002008BD4368A6
:10C59000044A0121002003F0EBFAFFF799FFF4E7CA
:10C5A000A4AC020074AC020008B503F077FD00F003
:10C5B00023F803F079FD0C4B0C4A1A610C4ADA603F
:10C5C0000C4819F087FC20B900F02EFC00F0FBFBB2
:10C5D000FAE7FFF709FE00B101BE00231A4619462B
:10C5E000184600F03BF800BF5C0100206DC500005C
:10C5F00075C40000C4AC020008B500F0B3F902F045
:10C60000C3FE03F0F5FC02F005FC19F0B3FD02F0E7
:10C61000BFFF03F03FFC03F0C9FA12F009F904F080
:10C6200069FA19F06BFC08BD094A0A4B9A420AD014
:10C63000002306E0074A52F82310054A42F8231067
:10C640000133352BF6DD024A034B9A60704700BF79
:10C650000000002020C0000000ED00E008B5754695
:10C6600004460E4601F0C8F802F00EFB6CB13346EA
:10C6700022462946074802F01BFC074B4FF00042B8
:10C680005A60BFF36F8FFFF7B7FD2946034802F0EA
:10C690000FFCF2E71CAD020000ED00E00CAD020063
:10C6A00000B583B0044602F0EFFA1B4D69682268BA
:10C6B000C1F30801194802F0FBFB20688368426857
:10C6C0000168C0680090164802F0F2FB23690093ED
:10C6D000E368A2686168134802F0EAFB236A0093EA
:10C6E000E369A2696169104802F0E2FB206883698E
:10C6F00042690169C06900900C4802F0D9FB696881
:10C70000EA6AAB6A0A4802F0D3FBA96B6A6B094874
:10C7100002F0CEFBFFF770FD00ED00E034AD02004B
:10C7200068AD02009CAD0200D0AD020004AE020074
:10C7300038AE020060AE0200F8B51CF0C5FC002562
:10C740000EE000F027FD1CF0BFFC254614E003F5C9
:10C75000F06325E000201CF0A7FB384601F052F8FA
:10C76000154A13680133136000F084FF044605F591
:10C77000F063C31A002BE4DA01F03EF8074600F03C
:10C7800079FF064600F048FE0446304600F0A8F95E
:10C79000A04228BF204605F5F0639B1B002BD6DD89
:10C7A000984228BF18460B28D4D9B0F5963FD2D965
:10C7B0004FF49630CFE700BFF43A002008B50346A7
:10C7C000002108469847FFF70FFD00B101BE002386
:10C7D0001A4619461846FFF741FF0000014B18683A
:10C7E000704700BFF83A002000B585B0402303939E
:10C7F0001B4B02934FF0FF330193FF230093002361
:10C80000184A1949194800F06BFE50B900F004FDB0
:10C8100088B947F230501CF00FFCB0B905B05DF894
:10C8200004FBFFF7E1FC00B101BE00231A461946E4
:10C830001846FFF713FFFFF7D7FC00B101BE002336
:10C840001A4619461846FFF709FFFFF7CDFC00B15D
:10C8500001BE00231A4619461846FFF7FFFE00BF27
:10C860004802002039C7000084AE0200A43A00202C
:10C8700010B584B004462C4B00221A605B602B4B31
:10C880001A605B6000F0D0FA00F00AFA00F000FADB
:10C8900000F0EEFF00BB8CB14FF480630393244B98
:10C8A00002934FF0FF3301937F2300932346214AE5
:10C8B0002149224800F014FEC0B2B8B91CF062F958
:10C8C000012000F09DF9C0B2D0B9022000F098F923
:10C8D000C0B2F8B904B010BDFFF786FC00B101BECC
:10C8E00000231A4619461846FFF7B8FEFFF77CFCEE
:10C8F00000B101BE00231A4619461846FFF7AEFEE6
:10C90000FFF772FC00B101BE00231A461946184613
:10C91000FFF7A4FEFFF768FC00B101BE00231A4632
:10C9200019461846FFF79AFE4C3B0020703B00204A
:10C9300048030020BDC700007CAE0200FC3A002086
:10C9400008B51CF0B9FB00F0F3FF00B908BDFFF714
:10C950004BFC00B101BE00231A4619461846FFF7EA
:10C960007DFE000008B5104B1B784BB1032000F092
:10C9700047F9C0B270B900F017FB00F0B9FB08BD71
:10C98000FFF732FC00B101BE00231A4619461846D3
:10C99000FFF764FEFFF728FC00B101BE00231A4632
:10C9A00019461846FFF75AFED83B0020F8B5044652
:10C9B0000D4617461E462022002101F081FD6760CA
:10C9C000A6602561F8BD000038B5044600F014FFEC
:10C9D0000546E3693BB1A26972B1D361E369A2691B
:10C9E0001A600023E361206910B1214600F0FCF9D0
:10C9F000284600F007FF38BD014A5360EEE700BF4C
:10CA00004C3B002070B50369C3B105460C460029B4
:10CA100034DB00F0F1FE06462846FFF7D5FF04B9E7
:10CA2000012400F027FE20446861154B1B687BB190
:10CA30005A69821A002A0BDB9B69F8E7FFF7D4FBDF
:10CA400000B101BE00231A4619461846FFF706FE3C
:10CA50005BB1DA69EA61AB61DA6915601835DD61ED
:10CA6000304600F0CFFE002070BD0023AB61044BC8
:10CA70005A68EA61156018355D60F1E70220F3E756
:10CA80004C3B002038B500F0F5FD05460FE0E269AB
:10CA9000124B5A60E369A2691A600023E36100F057
:10CAA000B1FED4B12069A0B963682046984700F070
:10CAB000A3FE0A4B1C68002CF1D06369EB1A002B13
:10CAC00005DBA369002BE2D0E269DA61E2E700242A
:10CAD000E5E7214600F0F1F8E9E738BD4C3B0020DE
:10CAE00010B5044600F091FE30B10B4B1B687BB1D2
:10CAF0005869001B0AD410BDFFF776FB00B101BED8
:10CB000000231A4619461846FFF7A8FD0020F2E751
:10CB10004FF0FF30EFE700BF4C3B002030B4154B27
:10CB20001D6815B12B46002408E0034643F8205F3A
:10CB3000104A5360106010E01C461B6A43B1017E2E
:10CB40001A7E914204D3F7D1417E5A7E9142F3D2AC
:10CB50005CB1236A03621BB12062002030BC7047C5
:10CB600000F12003034A5360F6E70562014B1860A9
:10CB7000F3E700BF4813002010B50446036941697C
:10CB80009847034628B1E27E12F0080F05D1002332
:10CB900003E0E27E42F00102E276184610BDC16178
:10CBA000027643760023C3768376009A0261019A67
:10CBB0004261036043608360C360184670470000B1
:10CBC00030B583B00546079C0194069C0094FFF79E
:10CBD000E6FF034610B1184603B030BD2846FFF704
:10CBE0009DFF03460028F6D1044A1268002AF2D0BD
:10CBF0002846FFF7C1FF0346EDE700BFF83A0020E3
:10CC000038B50546084B1C68002200E0246A44B190
:10CC1000237EAB42FAD12046FFF7AEFF0246002842
:10CC2000F4D0104638BD00BF4813002038B5054683
:10CC3000054B1C6834B12946E06901F05DFC08B180
:10CC4000246AF7E7204638BD4813002070B50D462A
:10CC50001646FFF7EBFF0446A0B1C37E13F0010FA9
:10CC600012D003681BB132462946984770B900F0CC
:10CC7000C3FDA37E0133A376E37E43F00203E37694
:10CC800000F0C0FD204670BD0024FBE70024F9E75A
:10CC9000024B00221A605B60704700BF48130020FF
:10CCA000002202604260034643F8082FC3607047C9
:10CCB000C068003018BF0120704770B5F0B10C4655
:10CCC0000546FFF7F5FFC8B100F096FD064623784C
:10CCD000F3B9012323700023E360EB681C600C347C
:10CCE000EC606868D8B1037B022B14D000240023C9
:10CCF0006B60304600F086FD9CB970BDFFF774FA9A
:10CD000000B101BE00231A4619461846FFF7A6FCDB
:10CD100000F078FDF1E700F01DFB0124E7E70024B7
:10CD2000E7E7002000F0A2FBE7E7836823B1DA68B9
:10CD300082601AB100221A701846704700F108028A
:10CD4000C260F7E7F8B5054600F0B0FA04462B6874
:10CD5000834201D0DBB9286000F04EFD0746AE6883
:10CD6000FEB96C604FF0FF31204600F0ABFA637BF8
:10CD700043F008036373384600F044FD002000F0E0
:10CD800075FB00F039FD074600236B60E7E7FFF70E
:10CD90002BFA00B101BE00231A4619461846FFF7C8
:10CDA0005DFCF368AB6053B100233370637B23F009
:10CDB00008036373384600F025FD3046F8BD05F1E1
:10CDC0000803EB60F0E708B5FFF7BCFF43680BB161
:10CDD000984708BDFFF708FA00B101BE00231A46C4
:10CDE00019461846FFF73AFC38B505460C4600F0E0
:10CDF00003FD237883B1AA68A24207D1D368AB6050
:10CE000053B905F10803EB6006E01A46D368A34264
:10CE1000FBD1DB68D36023B10023237000F0F2FC68
:10CE200038BD0C32EA60F7E7004870475013002025
:10CE3000002831D030B40446002A2FD0BBB113B142
:10CE400013F0030F2CD12260E18021819DF80C00AA
:10CE5000A072A180E3600298A061636199B112F0B1
:10CE6000030F02D022F003020432012007E0002960
:10CE7000E5D003200EE09D181D6001302B46814255
:10CE8000F9DC00221A6000202061064B5A68146009
:10CE900010345C6030BC7047032070470320F9E712
:10CEA0000420F7E7543B002010B582B00024019421
:10CEB000049C0094FFF7BCFF02B010BD0146B0B166
:10CEC000006810F0030F02D020F0030004308B88BC
:10CED000CB800B81CA684A6104E011181160013BE4
:10CEE0009BB20A46012BF8D800201060704703203F
:10CEF000704710B4036813F0030F02D023F003034C
:10CF00000433C468828803FB02428C420BD89142EE
:10CF10000CD2091BB1FBF3F203FB121109B901207A
:10CF200002E0002000E0002010BC70470020FBE77A
:10CF300038B5A0B1044600F05FFCE38853B16569E1
:10CF40002A686261013B9BB2E3802289934202D24C
:10CF5000238100E0002500F055FC284638BD00255F
:10CF6000FBE738B504460D4600F046FC63692B60CC
:10CF70006561E3880133E38000F044FC002038BDA4
:10CF800068B108B569B1837A13F0010F04D0C369A1
:10CF900013B1026A984708BDFFF7E3FFFBE70320E0
:10CFA00070470320F7E70000024B00221A605B6025
:10CFB000704700BF543B0020024B186808B1586806
:10CFC0000838704710010020094B19680B4623B13F
:10CFD0001A88824201D29B68F9E70BB11846704764
:10CFE00019B1034B5B68083BF8E70B46F6E700BF57
:10CFF0001001002030B4114B1D682B46002433B1C2
:10D0000001881A88914202D31C469B68F7E75CB1FD
:10D01000A36883601BB1A060002030BC704700F1A2
:10D020000803064A5360F6E7856015B1034B1860A4
:10D03000F2E700F10803014A5360F7E7100100200E
:10D0400030B583B01446079D0195069D009503F009
:10D0500031F828B92046FFF7CDFF70B903B030BDD5
:10D06000FFF7C2F800B101BE00200090094B1D6817
:10D07000034602460146A847ECE7FFF7B5F800B1C2
:10D0800001BE00200090034B1C6803460246014687
:10D09000A047E3E744010020024B00221A605B60D6
:10D0A000704700BF1001002010B50C4630B9FFF7E3
:10D0B00083FF30B1214600F070FC10BDFFF784FF04
:10D0C000F7E70020F9E710B50C4630B9FFF774FF19
:10D0D00058B1E1B200F07AFC10BD01F108039BB237
:10D0E000034498B2FFF770FFF2E70020F4E7000076
:10D0F00000B583B0FFF7D0FF064B01934FF4927356
:10D1000000930C23044A05490548FFF799FF03B033
:10D110005DF804FB8CAE0200102100201C210020D1
:10D120006013002008B5054B186800B908BD4FF022
:10D13000FF31034801F0A4F8F8E700BFF83A0020F7
:10D140005C3B002008B5044B186800B908BD0348D3
:10D1500001F036F8FAE700BFF83A00205C3B002007
:10D160000023036043608360C36003611846704717
:10D1700010B50446FFF7D6FF034608B1184610BDA8
:10D18000034B1A6822611C60FFF7DCFF0346F5E7DA
:10D190003821002010B5FFF7C5FF10B91D4B1C68E2
:10D1A00012E0FFF721F800B101BE00231A4619462C
:10D1B0001846FFF753FA00F05DFA236862681344DB
:10D1C000C31A002B0DDC2469ACB1A368002BF2D08C
:10D1D000E168204698470028EDD100F04BFA206026
:10D1E000F1E7FFF701F800B101BE00231A46194626
:10D1F0001846FFF733FAFFF7A5FF00B910BDFEF799
:10D20000F3FF00B101BE00231A4619461846FFF786
:10D2100025FA00BF3821002008B5024800F0C6FFFB
:10D2200008BD00BF5C3B0020037B012B01D0022026
:10D23000704710B5044600F0DFFA0F4B1B682BB1A6
:10D24000E17ADA7A914201D35B6CF8E753B19A6CD8
:10D25000A26463649A6C146044349C6400F0D2FA53
:10D26000002010BD00236364034B5A68A26414605D
:10D2700044345C60F2E700BF1801002010B4C36BB7
:10D280000133C363064B1868064B1C6806490B68DC
:10D29000C21AA36B1344A363086010BC704700BF9D
:10D2A0007C3B0020683B00206C3B0020014B186851
:10D2B000704700BF683B0020014B1860704700BFFB
:10D2C000683B002038B504460D46436CD3B1826CF0
:10D2D0009A64A36C626C1A600223237300F0CAF98B
:10D2E00028446063B5F1FF3F10D0184B1B68D3B1E1
:10D2F0005A7B12F0010F16D15A6B121A002A12DC57
:10D300005B6CF4E7826C124B5A60E2E7637B43F09C
:10D3100001036373002363640C4B5A68A2641460B6
:10D3200044345C6007E043B19A6CA26463649A6C15
:10D33000146044349C64002038BD00236364034BB4
:10D340005A68A264146044345C60F4E72001002051
:10D350001801002008B5037B022B08D1C3691BB359
:10D360001A6872B1824217D1D26C1A6019E0FEF7C6
:10D370003BFF00B101BE00231A4619461846FFF7CD
:10D380006DF9FEF731FF00B101BE00231A461946C0
:10D390001846FFF763F91A46D36C8342FBD1DB6C66
:10D3A000D3640023C364C361012303730023436375
:10D3B000437B23F001034373436C43B1826C9A6453
:10D3C000836C426C1A60FFF72FFF002008BD826C4F
:10D3D000014B5A60F4E700BF2001002070B500F057
:10D3E00049F9054600F008FA06460A4B186860B18C
:10D3F000437B13F0010F08D1446C436BEB1A002BF5
:10D4000003DBFFF7A7FF2046F1E7304600F0FAF90B
:10D4100070BD00BF2001002010B5044600F0F5F9F2
:10D4200050B10E4B1B689BB15A7B12F0010F12D109
:10D43000586B001B0AD410BDFEF7D6FE00B101BE2A
:10D4400000231A4619461846FFF708F90020F2E7AC
:10D450004FF0FF30EFE74FF0FF30ECE72001002006
:10D46000014B1868704700BF1801002038B504460A
:10D4700000F0C2F9054634B1204600F0B3F9284661
:10D4800000F0C0F938BDFFF7EBFF0446F4E70000F9
:10D4900008B5037B012B00D008BD436C3BB1826C07
:10D4A0009A64836C426C1A60FFF7BEFEF4E7826CEC
:10D4B000014B5A60F5E700BF18010020002303E08C
:10D4C000034A40F8232001338B42F9DB704700BF49
:10D4D000EFBEADDE4368008903EB800070470000BB
:10D4E0002DE9F04104460E4690461D46BDF82470D5
:10D4F0005022002100F0E4FFC4F81480A56100F080
:10D500007BF92E4B1D786A1C1A7000F07BF9A5720E
:10D510009DF81830E37201232373266100236363AF
:10D5200004F120063046FFF71BFE0546002838D1DF
:10D53000079BB3F1FF3F05D063623046FFF718FE4B
:10D54000054670BB39460898FFF7B8FF089B636033
:10D5500027812046FFF7BEFF3A460146204600F0ED
:10D5600059F92060164B1B687BB1E17ADA7A914257
:10D5700001D01B6CF8E7FEF737FE00B101BE0023B7
:10D580001A4619461846FFF769F823640C4B5A6887
:10D59000146004F140025A602046FFF745FE05463C
:10D5A00010B12846BDE8F081FFF718F908B9054623
:10D5B000F7E70020FFF75AFFF3E700BF783B0020B2
:10D5C000703B00202DE93008C30900F07F00D1E94D
:10D5D000004514EB030B45F1000CC2E900BC8B685D
:10D5E00041F6846101FB00309060084B98420ADDEF
:10D5F0001BF101044CF10005C2E90045A0F57420BF
:10D60000A0F510709060BDE8300870473F420F00F1
:10D6100070B5041E0DDB00F0EFF80546134A1368E1
:10D62000E018106090EA030F0DD4284600F0EAF8E5
:10D6300070BDFEF7D9FD00B101BE00231A461946A0
:10D640001846FFF70BF80A4E314651F8084B041BF9
:10D650000A462046FFF7B6FF06F118010A462046A3
:10D66000FFF7B0FF014B1B683360DEE77C3B002017
:10D6700040210020014B1868704700BF7C3B002010
:10D6800010B5041E09DB002C06DDFFF7A7F870B902
:10D690000C4A13681C44146010BDFEF7A5FD00B1D0
:10D6A00001BE00231A4619461846FEF7D7FF20464A
:10D6B000FFF7AEFFFFF7E6F9FFF790FE0020FFF758
:10D6C000D5FEE9E77C3B002000B9704738B5044639
:10D6D00000F092F80546FFF7E9FD2146FFF7F2FD5D
:10D6E000284600F08FF80020FFF7C0FE38BD00008C
:10D6F00070B505460C4600F07FF8064645B1FFF7C9
:10D70000B9FF084951F8183B2A46C01AFFF75AFFDB
:10D7100014B1044B986A2060304600F073F8002082
:10D7200070BD00BF40210020F0B585B0064600F076
:10D7300063F807460A4D6C4605F108030FCB84E8F1
:10D740000F002D68FFF796FF451B384600F05AF88A
:10D75000324621462846FFF735FF05B0F0BD00BF31
:10D76000402100202DE9F04884B06846FFF7DCFF37
:10D77000DDE900014C01420144EAD063121A63EB77
:10D7800001035C0244EAD25455022E1844EB01070F
:10D79000BD0145EA9665B401A21B65EB0703841839
:10D7A00041EB0305029BE01845EBE37104B0BDE8D3
:10D7B000F08838B504460D464FF47A720023C00154
:10D7C000610E1DF0C3F8012908BF002802D22860AD
:10D7D000002038BD0220FCE7FEE708B50120FFF776
:10D7E0004FFF08BD08B5FFF749FD024B4FF08052CF
:10D7F0005A6008BD00ED00E0EFF3108000F001007A
:10D8000072B6704700B962B67047EFF3108000F04F
:10D810000100704770B506460D46A1F1400409238A
:10D8200003E0002244F8232001330C2BF9DD2046CD
:10D8300000F0A0FD4FF0807345F8043C736945F893
:10D84000083CB36945F8203C024B45F80C3C2046A7
:10D8500070BD00BFD9D7000008B5044A536943F032
:10D8600010035361FEF7C0FF08BD00BF00ED00E0EC
:10D87000F8B5EFF305840CB9002409E007202EE089
:10D8800004F1604505F56145FF2685F80063013424
:10D89000EF2CF5D96FF00D0407E065B2124EB668B3
:10D8A0001035124F46F825700134252CF5DD0E4C4D
:10D8B000A5680F4EEE62A5680E4EAE63A5680E4ECB
:10D8C000EE63E02584F822502025E577EFF31484F9
:10D8D00014F0010F04D0DFF824C000DF0020F8BDF1
:10D8E000FFF7BAFF0020FAE700ED00E0F7E30000E1
:10D8F0007BE30000C1E30000EBE3000059D8000027
:10D9000010B5FFF7ADFD0446FFF7D6FC23682033C2
:10D9100083F30988062180201BF01EFB034B0122A4
:10D920001A602046FFF75EFFA06910BDF83A00209C
:10D9300010B514480068043800F012FDEFF30584B8
:10D94000D4B9EFF3148404F00304032C08D8DFE8FF
:10D9500004F01515020C0C4C246814F0010F0FD1C3
:10D96000DFF828C000DF002010BD074C246814F049
:10D97000010FF5D10820F7E70720F5E70820F3E7C6
:10D980000820F1E7A43A00207021002001D900000E
:10D99000103A028041600020704738B503888B42FE
:10D9A00012D30D4604464068FFF7C2FA034648B159
:10D9B0000022C26002714271C28000F1100129444C
:10D9C00001608460184638BD0023FBE738B501F1DB
:10D9D00008050388AB4210D3FF2D10D80021FFF7B4
:10D9E000DCFF034638B15D71026815440560002212
:10D9F000028242824261184638BD0023FBE70023C1
:10DA0000F9E708B5836823B101465868FFF7B8FA0B
:10DA100008BD0020FCE7034660B110B5DC6818467D
:10DA2000FFF7EFFF2346024610B9002CF6D1002283
:10DA3000104610BD0022104670472DE9F04700281F
:10DA40004DD00F4691468246D0F80880054600E04A
:10DA50001D46EB68002BFBD14E46AB6805F1100468
:10DA60001B881C442868EB881844241AA4B264B1AB
:10DA70004C4500DD4C462246394600F0F9FCEB8867
:10DA80002344EB802744A9EB0406002E16DD002179
:10DA90004046FFF782FF044680B1B8F80020B2424A
:10DAA000A8BF324692B2C2803946006800F0E0FC5E
:10DAB000E3881F44F61AEC602546E6E79AF805303D
:10DAC000072B07D9A9EB0609BAF8103013FA89F920
:10DAD000AAF8109006B101263046BDE8F08702266C
:10DAE000FAE770B110B402E0C91A20463CB1C4682C
:10DAF000C3888B4202DCF7D1002CF5D1118010BC19
:10DB000070477047F0B583B00746084611461E4679
:10DB10000DF10602FFF7E5FF0546BEB1D5B1EC8871
:10DB2000BDF80630E41AB442A8BF3446A4B229684E
:10DB3000224619443846FFF780FF034638B9341BA4
:10DB4000A6B2ED680023ADF80630E6E700231846DC
:10DB500003B0F0BD0223FAE7F8B504461F461646A7
:10DB600012B3002906DD0CB3E3888B4202DCC91A2C
:10DB7000E468F6E7002E10DD7CB1E5886D1AB54249
:10DB8000A8BF354623682A461944384600F070FC81
:10DB9000761B2F44E4680021ECE7002E01DC002016
:10DBA00003E04FF0FF3000E01046F8BD4FF0FF30CB
:10DBB000FBE700284ED0F8B5044600291CDB0346DD
:10DBC0000A4605E0801AD880186802441A600022CC
:10DBD0004BB1002A07DDD8889042F3DC121A0020EE
:10DBE000D880DB68F4E76379072B04D9521A218ABD
:10DBF00011FA82F22282F8BD4F42002200E028464C
:10DC0000C3881A44C568002DF9D1BB4209DBBFB2F5
:10DC1000DB1BC3806379072BEDD9238ADF1B2782A7
:10DC2000E9E78A180BD46379072B00D92282002CEC
:10DC3000E1D0E388934204DAD21AE468F7E70022DD
:10DC4000F1E7E280E0680028D5D0FFF7E4FE00238A
:10DC5000E360D0E770472DE9F04182B01E1E2DDD54
:10DC600017460DF10602FFF73CFF04464FF000088F
:10DC700009E045441FFA85F8B04527D0E468002341
:10DC8000ADF80630BCB1F4B1A6EB0802E388BDF8EC
:10DC900006001B1A9A42A8BF1A4695B2002DE8D07A
:10DCA00023682A4607EB0801184400F0BDFB034631
:10DCB0000028DED003E06FF0004300E000231846A8
:10DCC00002B0BDE8F0816FF00043F8E70023F6E70B
:10DCD0002DE9F04383B015461F46BDF828600023A8
:10DCE000ADF80630ADF804300DF10602FFF7F9FE8D
:10DCF000044601AA39462846FFF7F3FE05463AE0F6
:10DD0000E4680023ADF806304CB1E288BDF8063077
:10DD10009A42F5D903E0ED680023ADF8043025B14F
:10DD2000EA88BDF804309A42F5D95CB36DB3E38854
:10DD3000BDF80690A3EB09039AB2EB88BDF8048006
:10DD4000A3EB08039BB237469A4200D213469F4288
:10DD5000A8BF1F46206829683A464144484400F05D
:10DD600063FB034650B9B944ADF80690B844ADF82A
:10DD70000480F61BB6B2002EC6D10023184603B0AD
:10DD8000BDE8F0836FF00043F8E76FF00043F5E77C
:10DD9000F8B504460E4619E000201BE00021A068FB
:10DDA000FFF7FBFD0546002D33D06379072B36D8EE
:10DDB000AA6805F11003128813442968EA880A4406
:10DDC0009B1A11FA83F32B60EC602C4661790729CA
:10DDD000E2D988B2234653F8102B0344D31A9BB2DE
:10DDE0009E4200DA3346D21A226098B2E288024498
:10DDF000E280072902D9228A10442082F61A0CD028
:10DE00000729CBD90839C9B2A068FFF7DFFD05465D
:10DE1000C9E72046FFF7FFFD2C462046F8BDEB88FA
:10DE20007BB905F11007627904F11001384600F062
:10DE30001FFB63796B7163791F442F60002363714B
:10DE4000B6E7FEF7D1F900B101BE00231A46194624
:10DE50001846FEF703FC2DE9F04383B0814688465F
:10DE600017461E460DF10602FFF73BFE054648B970
:10DE70004FF0FF362DE066B3EB68ABB10022ADF892
:10DE800006201D46EC88BDF80630E41AB442A8BF4F
:10DE90003446002CEFDD286822463946184400F04D
:10DEA000E7FA2744361BE6E7B2B239462846FFF7C1
:10DEB000C4FD68B999F80520072A0ED94644B9F877
:10DEC00010804645B8BF4646A9F81060064600E0F7
:10DED0000646304603B0BDE8F0830646F9E7024641
:10DEE00000E01A46D368002BFBD1D1604379072BA1
:10DEF00014D94B79072B0DD80B4679B110B4DA88B9
:10DF0000048A22440282DB68002BF8D100234B7183
:10DF100010BC70470B8A028A1344038200234B71A2
:10DF20007047F8B587683B888B4227D3044600E0EA
:10DF30001C46E368002BFBD10D460646A26804F19F
:10DF40001003128813442268E1880A449B1A9BB28A
:10DF50009D420BD82068E38818442B44E3807379F2
:10DF6000072B02D9318A0D443582F8BD002138468D
:10DF7000FFF713FD20B1E0600446EBE70020F4E773
:10DF80000020F2E72DE9F04104468068E2888A42E9
:10DF900079D20D4604F110030688334421681144F8
:10DFA0005B1A12FA83F32946AB4212DBE36883B1B2
:10DFB000AD1AADB227461C46BB6807F110081B8896
:10DFC00098443B68FA881344A8EB03081FFA88F8C2
:10DFD0002DE06379F61AB14250DC0021FFF7DDFC39
:10DFE000074600284AD06379072BE5D9C3886BB967
:10DFF00000F11006627904F11001304600F038FAA1
:10E0000063797B7163791E443E60D5E7FEF7ECF8D7
:10E0100000B101BE00231A4619461846FEF71EFB42
:10E02000E6682046FFF7EDFC34460DB304B3E688FE
:10E030002B464545A8BF43469E42A8BF1E463868AA
:10E04000FB8832462168184400F012FAB2B2AD1AC9
:10E05000ADB2FB881344FB80E3889B1A9BB2E3803C
:10E06000A8EB0608002BDBD023681E442660DCE703
:10E070000DB9FC6008E03846FFF7C3FC2046FFF707
:10E08000CAFC002700E027463846BDE8F08110B5FD
:10E090000C46FFF77DFE034618B12146FFF772FFDD
:10E0A0000346184610BDF8B50646C788D7B9C468F8
:10E0B00005E0E568F5602046FFF7A3FC2C4614B1A7
:10E0C000E388002BF5D06CB16379072B00D99FB2A0
:10E0D000204650F8103B0744DF1BBFB273799AB259
:10E0E000BA4201D93046F8BD6371727906F1100168
:10E0F00000F0BEF93046FFF784FC2646F2E72DE932
:10E10000F843814600284ED009B1FFF7E8FE4D469E
:10E1100006E0002308E0344610E02546002C42D0FB
:10E120006A79072AF5D993B22E4656F8101B334464
:10E13000CB1A9BB23BB1072AEDD9B418EA88204626
:10E1400000F0A3F92C602B68B5F806809844EC68C1
:10E15000AB681F883744A7EB0807BFB2002FDCD09D
:10E16000002CDAD0E688BE4228BF3E4632462168FF
:10E17000404600F07DF9EB883344EB80B044BF1B90
:10E18000BFB2236833442360E3889E1BE680E388A4
:10E19000002BE3D1E368EB602046FFF732FCEC682C
:10E1A000002CF4D1DAE74846BDE8F883034628B1ED
:10E1B00000205871D880986018607047032070471D
:10E1C000F8B52E4B1B68002B52D0002852D00446C5
:10E1D000FFF76CF80546E388002B4DD0A268824219
:10E1E00001D0052045E0012B03D0013BE380002056
:10E1F0003FE0FFF701FB0746E388013BE380EA7A53
:10E2000063799A421ED1266846B1F369FBB1304664
:10E21000FFF7A0F80123E380F37A6371A66016B1DB
:10E22000B37B0133B373AB7B013BAB73FFF718F9DF
:10E230000446854215D001253846FFF7E3FA95B923
:10E24000002016E0EB722846FFF722F9DBE7FDF726
:10E25000CBFF00B101BE00231A4619461846FEF74F
:10E26000FDF90025E8E72046FFF700F9002000E06F
:10E270000920F8BD0320FCE70520FAE7F83A002062
:10E28000364B1B68002B65D0002865D02DE9F04186
:10E290000F460446FFF7B0FA8046FFF707F8054639
:10E2A000E3889BB1A26882421ED027B3D17AC37A99
:10E2B000994225D8216869B30B4600262BB3E87A2A
:10E2C000DA7A904221D31E46DB6CF7E7A060C37A6E
:10E2D0006371837B013383730123E3804046FFF73F
:10E2E00091FA0020BDE8F0810133E3804046FFF75A
:10E2F00089FA0020F6E74046FFF784FA0620F1E7A6
:10E30000D372A068FFF7C4F8D4E71EB1F36CEB64D6
:10E31000F56401E0E9642560EC616B7B43F0040384
:10E320006B7339462846FEF7CDFF4046FFF76AFA81
:10E330000020FFF79BF8FFF75FFA6B7B23F00403E5
:10E340006B73FFF75FFAA368AB4201D00620C9E701
:10E350000020C7E70920704703207047F83A0020E3
:10E3600080F309882B480078023080F31488BFF3CB
:10E370006F8F704780E8F00F7047EFF30980816975
:10E3800011F8021C51B990E80F1010B5E047BDE834
:10E390001040EFF3098C8CE80700704710B51E4A57
:10E3A0001268914209D81D4C54F8214090E80F1092
:10E3B000A047EFF3098C8CE80F00BDE810407047D0
:10E3C000174B1A68174B1968914208BF7047EFF353
:10E3D000098C2CE9F00FC1F800C01A60D2F800C017
:10E3E000BCE8F00F8CF30988704710B5FFF7F5F91A
:10E3F000BDE8104070471EF0040F0CBFEFF3088318
:10E40000EFF309832DE9F84F6846FEF749F9BDE8B7
:10E41000F84F70477021002000000000FCFFFFFF54
:10E4200018010020683B002070B44FF0000522F076
:10E43000030605E043594C59A34204D105F10405F4
:10E44000B542F7D10DE01BBA24BA1B1B8CBF0123C8
:10E450004FF0FF3309E0435D4C5D1B1B05D105F117
:10E4600001059542F7D14FF00003184670BC704784
:10E4700001E08B588350043AFBD502F1040201E01D
:10E480008B5C8354013AFBD5704710B481420CD8A1
:10E490001144831810E00A781A70013301312246C2
:10E4A000541E002AF7D110BC70470346F8E711F854
:10E4B000012D03F8012D2246541E002AF7D1F2E760
:10E4C00030B40546C9B241EA012141EA0141AB1825
:10E4D00003242340D31A0BD401E0013AA9549A42F1
:10E4E000FBD100E0A950043AFCD5043200E0A95465
:10E4F000013AFCD530BC704730B40246551C137845
:10E500004C1C0878181A03D12A462146002BF5D155
:10E5100030BC7047034600E001331A78002AFBD173
:10E52000181A7047F0B4044600E03446114BA3FBC0
:10E530000153DB081D4603EB83035E008B1B661C47
:10E54000303323702946002DEFD1234609E00546DC
:10E5500015F8016B194611F8017907701E702846ED
:10E560000B468342F3D862700023A370A01CF0BC5A
:10E57000704700BFCDCCCCCC08B50023084A13802F
:10E58000084A1380084B1968084B1868FEF795FB7A
:10E59000074B1B6803B19847034B00221A6008BD64
:10E5A000A0210020B6210020A4210020AC210020C1
:10E5B0009021002008B50B4B1B7873B90A4B1B78D0
:10E5C0004BB90A280CD00D2808D00122074B1A603D
:10E5D00000F072FD01E000F06FFD08BD0022F5E7DC
:10E5E0000022F3E7883B0020893B0020843B002089
:10E5F00070B506460D460024AC4207DA305DFFF7E1
:10E60000D9FFB0F1FF3F01D00134F5E770BD000044
:10E6100008B50D4B1B880D4A12881344FE2B0EDCE7
:10E62000C15471B10A4B1B682BB9074A13880133D7
:10E630001380012004E0084600F03EFDF5E70020CD
:10E6400008BD0120FCE700BFA0210020B62100206A
:10E650002801002070B506460D460024AC4207DABA
:10E66000305D00F029FDB0F1FF3F01D00134F5E746
:10E6700070BD0000114B198801B9704710B584B006
:10E6800045F61B330093002301930293ADF80C3041
:10E6900049B90B49094A0B88108803440B800023B1
:10E6A000138004B010BD6C4643220DF10200FFF749
:10E6B00039FF011B2046FFF7CDFFEAE7B621002016
:10E6C000A0210020114B198801B9704710B584B002
:10E6D00045F61B330093002301930293ADF80C30F1
:10E6E00049B90B49094A0B88108803440B80002361
:10E6F000138004B010BD6C4644220DF10200FFF7F8
:10E7000011FF011B2046FFF7A5FFEAE7A02100202B
:10E71000B621002030B585B00446174B1B8805E0B4
:10E72000607804F8010B00F0C7FC2B465D1E012B3E
:10E73000F6DC114B1B880BB905B030BD202000F072
:10E74000BBFC0D4B198845F61B3300930023019346
:10E750000293ADF80C3021B9074A1388013B1380AE
:10E76000EAE76C4644220DF10200FFF7DBFE011BD5
:10E770002046FFF76FFFEFE7B621002008B5054BF5
:10E780001B8803B908BD044B1B881844FFF7C2FF60
:10E79000F8E700BFB6210020A02100205E4B1B68D7
:10E7A00013F0040F44D023F004035B4A1360A0F17C
:10E7B0003002092A31D9594B01221A6010B584B0B0
:10E7C000462800F09C805ED843286CD0442840F056
:10E7D0008F80534B1B88514A11688B42C0F0888050
:10E7E0008AB2504C2088104420809B1A4C4A1380D7
:10E7F00045F61B330093002301930293ADF80C30D0
:10E80000002975D06C4644220DF10200FFF78AFE04
:10E81000011B2046FFF71EFF6AE043F008033E4A53
:10E82000136030383D4B18603F4B00221A60704730
:10E8300013F0080FC2D0A0F13002092A14D813F047
:10E84000100F08D038490A6802EB820253000344D3
:10E85000303B0B60704731490A6802EB820253007B
:10E860000344303B0B6070473B2804D023F018036F
:10E87000294A1360A2E713F0100FF7D143F01003F9
:10E88000254A1360704748282FD07E2830D1234B6B
:10E890001B68032B37D0042B39D0012B28D1084615
:10E8A000FFF710FF24E01F4B1B881C4A11688B42A6
:10E8B0001ED38AB29B1A1B480380194B1888024446
:10E8C0001A8045F61B330093002301930293ADF8A1
:10E8D0000C3069B16C4643220DF10200FFF722FEB5
:10E8E000011B2046FFF7B6FE02E00846FFF7EAFEEE
:10E8F000094A136823F00203136004B010BD0846F0
:10E90000FFF7B8FEF4E70846FFF738FFF0E70846E0
:10E91000FFF7B0FEECE700BFA82100207421002023
:10E92000A0210020B621002078210020134B1B8855
:10E9300003B9704730B585B0044645F61B330093E4
:10E94000002301930293ADF80C306D46442201215F
:10E950000DF10200FFF7E6FD411B2846FFF77AFEA6
:10E96000064A1388013B9BB2138005490A8801328D
:10E970000A80E018FFF7CEFE05B030BDA0210020D0
:10E98000B621002010B584B0134B198879B9002343
:10E99000114A1380114A13801B2000F08DFB5B206D
:10E9A00000F08AFB4B2000F087FB04B010BD45F659
:10E9B0001B330093002301930293ADF80C30002920
:10E9C000E5D06C4644220DF10200FFF7ABFD011BC0
:10E9D0002046FFF73FFEDAE7A0210020B621002005
:10E9E000264B1B88264A12881344FE2B45DCF0B5C3
:10E9F00085B00F460646234B1B6863B91F4A138830
:10EA0000013313801E4B1B8803B93770344614F84A
:10EA1000015B37700AE0084600F04EFBEEE7224645
:10EA200012F8011B257033460D4614465E1E002B5E
:10EA300007DD144B1B68002BF1D0284600F03CFB8F
:10EA4000EDE7104B1B680BB905B0F0BD0C4B1988F6
:10EA500045F61B330093002301930293ADF80C306D
:10EA60000029F1D06C4644220DF10200FFF75AFD57
:10EA7000011B2046FFF7EEFDE6E77047A0210020CE
:10EA8000B621002028010020014B1860704700BF0C
:10EA90002801002070B504463D4B1B689D683D4B26
:10EAA0001B68043B102B55D8DFE803F03A54205480
:10EAB0005409545454545454545454540900364B27
:10EAC000188821462844FFF78BFF0A2C01D001202B
:10EAD00013E0314B1B880024EC540120FFF7D4FFD6
:10EAE0002C4B1C60FFF748FD012006E0092805D0EB
:10EAF000284B00221A60294B187870BD254B1860EE
:10EB00000020FFF7C1FF244E308806212844FFF77C
:10EB100067FF308821462844FFF762FF0120ECE7B9
:10EB2000142805D01B4B00221A601C4B1878E4E710
:10EB3000184B18600020FFF7A7FF174E30880421FC
:10EB40002844FFF74DFF308821462844FFF748FF4F
:10EB50000120D2E704280AD006280DD00F4B1B78DD
:10EB60008BB10D2811D00A280BD00120C5E7094B25
:10EB700004221A600120C0E7064B06221A60012019
:10EB8000BBE70020B9E70020B7E70020B5E700BFEA
:10EB9000A4210020B0210020A0210020803B0020E3
:10EBA00008B50A4B5B68C3F3080323B1084BDB8845
:10EBB0004BB9002008BD01460548FFF761FB092855
:10EBC000F8D10020F6E70B20F4E700BF00ED00E0ED
:10EBD0009421002008B50C4B5B68C3F308030BB10C
:10EBE000002008BD0948FFF7EBFA0028F9D00928F2
:10EBF000F7D0FDF7F9FA00B101BE00231A46194615
:10EC00001846FDF72BFD00BF00ED00E09421002029
:10EC100038B505460C468020FFF7C2FFE0B9012C4D
:10EC200002DD2B78042B18D0022C02DD6B78062B2A
:10EC30001AD0134B1B7813B9124B1B781BB9214602
:10EC40002846FFF7D5FC002C04DD2C4414F8013CC9
:10EC50000A2B10D0FFF7BEFF38BD6B78142BE3D121
:10EC6000074B01221A70DFE7AB78092BE1D1044B87
:10EC700001221A70DDE7024B00221A70EAE700BF9A
:10EC8000893B0020813B002008B500F0FFF908BD5A
:10EC900070B5544B1B68002B00F09F800446524B0C
:10ECA0001B684BB1504B1B689E682046FFF7F2FE75
:10ECB00078B10025284670BD4C48FEF736F84A4B1F
:10ECC00018600028EED14A4B01221A704FF0FF3530
:10ECD000F0E74FF47A70FFF763FF054600287ED116
:10ECE000444B1B6813F0020F18D113F0010F1CD115
:10ECF000A4F120035E2B69D931462046FFF74EFD73
:10ED00000A2C3CD021D90D2C39D026D91B2C2AD144
:10ED1000384A136843F00103136003E0314620468C
:10ED2000FFF73CFDFFF756FFC4E723F00103314A2C
:10ED3000136031462046FFF731FD5B2CF2D12D4A9E
:10ED4000136843F006031360ECE7082C0DD031D8AC
:10ED5000032C0ED1FFF716FEE4E70C2C09D10C2092
:10ED600000F0AAF9DEE77F2C03D13046FFF7DEFD85
:10ED7000D8E7214B188821463044FFF731FE0A2C92
:10ED800003D11E4B1B780D2B11D01C4B1C701A4B42
:10ED90001B881B4A128813440022F2540D20FFF7EF
:10EDA00009FC0A20FFF706FCFFF7E6FBBAE7134B66
:10EDB0001C70B7E7134B1B68002BB3D0104A1288A6
:10EDC000002AAFD1104930469847ABE70A4B188864
:10EDD00021463044FFF704FEA4E700256AE74FF020
:10EDE000FF3567E7AC210020A42100207C21002012
:10EDF000B5210020A8210020A0210020B42100205E
:10EE0000B62100208C21002011E6000008B500F09A
:10EE10006DF908BD10B582B0124B1B7853B1124882
:10EE2000FDF73EFF1148FFF7C1F900F067F958B947
:10EE300002B010BDFDF7D8F900B101BE00231A469B
:10EE400019461846FDF70AFCFDF7CEF900B101BEE0
:10EE500000200090064B1C68034602460146A0476E
:10EE6000E6E700BFD83B00207C2100209421002051
:10EE70004401002070B504460D4600F027F860B14B
:10EE8000094B1B680BB1002608E0FEF7F3FB0146B7
:10EE900006481BF09DF9064600E00026294620465C
:10EEA0001BF0C6F9304470BD843B002094AE0200D4
:10EEB0000FB400B583B004A951F8040B0191FFF71A
:10EEC000D9FF03B05DF804EB04B07047014B18782C
:10EED000704700BF2C01002008B5C36A984708BDE1
:10EEE00042680378D154037842880133013A1340D1
:10EEF00003707047024641684378C85C518801330B
:10EF000001390B4053707047037842880133013A4E
:10EF100013404078984214BF0020012070470278C7
:10EF20004078824214BF00200120704738B5054662
:10EF30000024AC420EDA0848FFF7F1FF50B906484A
:10EF4000FFF7D8FF054B1B68DA6A01461846904761
:10EF50000134EEE738BD00BFE02100200C22002084
:10EF600008B50548FFF7DBFF18B90348FFF7C2FFF4
:10EF700008BD4FF0FF30FBE7E0210020C37E03F027
:10EF80000603022B00D0704770B50E460446FEF70C
:10EF900033FC054602E0FEF72FFC05460C48FFF760
:10EFA000B3FF68B1636A204698472846FEF72AFCFB
:10EFB000FDF714FC0028EED00120FEF785FBEAE700
:10EFC00031460348FFF78CFF2846FEF71BFC70BD57
:10EFD000E021002010B50C460C48FFF795FF40B922
:10EFE00021460A48FFF77CFF094B1B783BB1002004
:10EFF00010BD084B01221A704FF0FF30F8E7FDF703
:10F0000013FF0349FDF759FE0020F1E7B821002066
:10F010008C3B00200822002010B5184B18680028EF
:10F020000BDBC0B2FFF734FE002806DA24E0134BF6
:10F030001878FFF72DFE00281EDB1148FFF76FFF41
:10F04000B0B9FEF7D9FB04460D48FFF753FF0B4B51
:10F0500018602046FEF7D6FB0A4B1B78002BE6D043
:10F06000084B00221A70084B1868836A9847DEE73D
:10F07000024B4FF0FF321A6010BD00BF300100207C
:10F08000B8210020082200200C22002010B5FEF735
:10F09000B3FB0446064B1B682BB1054B054A1A60AF
:10F0A0002020FFF743FF2046FEF7ACFB10BD00BF5A
:10F0B00010220020D9EE000038B50446094B1B6829
:10F0C00073B10A2803D10D21074A10689847064DED
:10F0D000044B1B68E1B2286898472868436A984740
:10F0E000204638BD102200200C220020024B186858
:10F0F000003018BF012070470C22002000B587B0F7
:10F100000023CDF80630CDF80E30CDF81230ADF832
:10F1100016304FF4E133009308238DF804300123B7
:10F120008DF80530134B0293134B0393134B20229E
:10F130005A8013495960134B13491960134B5A8075
:10F14000134A5A60134B144A5A60144B1B681BB184
:10F15000002007B05DF804FB6A464FF0FF3110480D
:10F16000FDF774FD0D4B186008B10020F1E74FF07A
:10F17000FF30EEE761EF0000D5EF0000E021002056
:10F18000E8210020102200207DEF0000B82100209F
:10F19000C02100208C3B002019F000000C22002030
:10F1A0009CAE020010B40C4B1C688CB100230B4ABF
:10F1B00012689A4207DD03EB43018A00A25C824297
:10F1C00003D00133F3E74FF0FF33184610BC70470C
:10F1D0004FF0FF33F9E700BF9C3B0020A03B00202D
:10F1E0000023134A12689A421FDD30B404E0013351
:10F1F0000F4A12689A4215DD0E4A126803EB430467
:10F20000A1000A44447851788C42F0D14568816865
:10F2100029445468926822448C42E8D29542E6D24E
:10F22000012000E0002030BC70470020704700BF84
:10F23000A03B00209C3B002070B500240AE0FCF7B6
:10F24000D3FF00B101BE00231A4619461846FDF748
:10F2500005FA0134052C26DC630023449A00124B86
:10F26000D618985CFFF79EFFB0F1FF3FF1D10F4B2E
:10F270001D68092DE3DC3046FFF7B2FF0028E8D116
:10F280000B4B1B6805EB4505AA00134404EB440235
:10F290009100054A0A4407CA83E80700034A136835
:10F2A00001331360D5E770BDBCBA0200A03B00205B
:10F2B0009C3B002070B586B005460E4614460023E0
:10F2C000136000F0E7FD01A800F004FE2368AB42E4
:10F2D00029DA022101A800F0C6FD034610F10F0F44
:10F2E00003D020B1184606B070BD0023FAE703A989
:10F2F00001A800F0C5FD03460028F3D1236803EB05
:10F3000043039A00B3189DF80C10B1549DF80D20DA
:10F310005A70DDF80E205A60DDF812209A602368DA
:10F3200001332360D2E74FF0FF33DBE738B50B4BF7
:10F330001C6864B10D46FFF735FFB0F1FF3F09D0FF
:10F3400000EB400083001C442C60002038BD6FF0AF
:10F350000600FBE76FF00300F8E700BF9C3B0020CE
:10F3600038B584688C4208D3CD18AC4208D34468C1
:10F370002144407819F02FFC38BD4FF0FF30FBE7F7
:10F380004FF0FF30F8E7000010B584B01A4B1B783F
:10F3900093B119F00CFCC8B9184B194A1A60194BF3
:10F3A00006221A6003AA18490A20FFF783FF08B94A
:10F3B000039BC3B904B010BDFCF716FF00B101BE3A
:10F3C00000231A4619461846FDF748F9FCF70CFFCA
:10F3D00000B101BE002000900C4B1C6803460246A1
:10F3E0000146A047D8E7054A07491160054A13605E
:10F3F000FFF722FFDEE700BFD83B00209C3B002048
:10F40000BCBA0200A03B00201422002044010020CE
:10F41000054B1B681BB1834203D0DB68FAE7002071
:10F4200070470120704700BF34010020022801D836
:10F43000002070470C207047438B2BB18B4201D2C8
:10F4400001207047002070470020704700B583B04E
:10F4500003690193019B0BB1019B984703B05DF8D1
:10F4600004FB0000000000002DE9F04F87B00646C5
:10F47000894615469A46109C1846FFF7D7FF002884
:10F4800040D13368002B6FD07368002B6FD00F2DE5
:10F4900000D90F251B68022B3ED0337EAB4269D8C2
:10F4A000484600F039FAA84267D8FEF7A5F9364B6E
:10F4B000D3F8008008F101021A60FEF7A3F90021D9
:10F4C00002A8FEF715F9834648B9DDE90201CDE946
:10F4D00000012BA3D3E9002382428B4120DBFEF7FE
:10F4E00041F920606160657384F80C90C4F808806D
:10F4F000A37B6AF303036FF30713A373584607B0A4
:10F50000BDE8F08FFCF770FE00B101BE00231A4683
:10F5100019461846FDF7A2F81C4B01221A70BCE7E9
:10F52000DDE900677901720141EAD663961B63EB5E
:10F530000707790241EAD6517002DDE9002312186B
:10F540004B411F46990141EA92619001821A61EB99
:10F550000703DDE90067B6185F41049BF11847EB2C
:10F56000E37221606260BEE74FF0FF3BC6E74FF0F9
:10F57000FF3BC3E74FF0FF3BC0E74FF0FF3BBDE76A
:10F580007FC1855600000000A43B00208C22002093
:10F5900008B50D4B1B7863B100230C4A13700C4A5D
:10F5A000136052600B4A03211171136000F084F95B
:10F5B00008BDFCF719FE00B101BE00231A4619462A
:10F5C0001846FDF74BF800BFD83B00208C220020E6
:10F5D00034010020A43B0020837B13F0100F01D1E5
:10F5E0000F207047132070472DE9F04389B006467D
:10F5F0000F4690469946BDF844502946FFF71CFF38
:10F60000044618B1204609B0BDE8F08303AB00936F
:10F610004B46424639463046FFF726FF044600284F
:10F62000F0D173681C692B46109A03A93046A04795
:10F6300004460028E6D105993046FFF707FFE1E7C9
:10F6400008B54368DB69984708BD000030B589B04C
:10F6500006910023079306AA04924FF0FF344FF05F
:10F66000FF35CDE90045029303936A460549FFF74C
:10F67000E7FF079B13B1002009B030BD4FF0FF300A
:10F68000FAE700BF79F7000030B587B00C469DF867
:10F6900028102E4D2D783DBB0F2900D90F21206059
:10F6A0006260A36021760023236163832046FFF715
:10F6B000AFFE38B90023E360254B5A68146004F1AB
:10F6C0000C025A6063689B6A1BB320469847054644
:10F6D000F8B11F4B1A68A24211D1D3681C4A1360BB
:10F6E000E3B913465A6019E0FCF77EFD00B101BE94
:10F6F00000231A4619461846FCF7B0FF1A46D3688D
:10F70000A342FBD1DB68D36043B90C32104B5A6083
:10F7100004E063681B68022B03D00025284607B06D
:10F7200030BD01A92046FFF791FF054608B100252D
:10F73000F4E7FEF761F8039B064A1268934202D38E
:10F740000133044A1360FEF75DF8E7E78C220020DE
:10F7500034010020A43B002030B583B044686468C5
:10F76000BDF818500095A04703B030BD0023C0F885
:10F770000F306FF00B00704730B583B015460C6941
:10F7800022680F23009300232946FFF7E5FF0E2888
:10F7900001DD012363602068837B13F0100F02D129
:10F7A000012003B030BDFFF7E1FF10B110F10C0FE5
:10F7B000F6D101236360F3E702207047022070470F
:10F7C0000220704710B582B00446017B407B22685E
:10F7D0006368019000910A48FFF76AFBA37B13F06E
:10F7E000100F04D10748FFF763FB02B010BDE17BA7
:10F7F000227C637CA07C00900348FFF759FBF1E773
:10F80000D8AE020008AF0200F8AE020070B594B0A6
:10F810000A46014605A818F085FA0DAD2B4611AA37
:10F82000002105A818F047FD084B1E6801AC95E8BB
:10F830000F0084E80F002146304619F057F90121E6
:10F840000348FFF7E5F9002014B070BDE4BD0200E5
:10F850003CB6020070B50C4615461E46FFF7D6FAB8
:10F8600058B10B4B1B6853B1A37B03F00F03012B63
:10F8700009D031462846FFF7CBF9002070BD20465D
:10F88000FFF7A0FFF0E7B1B22846FFF7BFFFF4E7AC
:10F89000843B002070B505460C4616460846FFF727
:10F8A0009BFE331A221821462846FFF7D3FF70BD6E
:10F8B000004870479022002010B582B0114B1B7891
:10F8C0004BB100230093104A10491148FFF7DCFEAA
:10F8D00058B902B010BDFCF787FC00B101BE00238F
:10F8E0001A4619461846FCF7B9FEFCF77DFC00B134
:10F8F00001BE00200090074B1C68034602460146EB
:10F90000A047E6E7D83B0020A4AE020090220020EA
:10F91000D0AE0200440100204308054AD35C10F039
:10F92000010F01D01809704703F00F00704700BFA6
:10F93000AC22002010B4084B1B6800243BB15A7A5B
:10F94000824204D002D81C461B68F7E7002301B1AD
:10F950000C60184610BC7047F023002010B582B030
:10F96000044601A9407AFFF7E5FF019B43B11B68FC
:10F970002360019B1C60637AFF2B06D002B010BD90
:10F98000034B1A6822601C60F5E7024B1C60F5E728
:10F99000F02300202C23002008B50548FDF7C8FA05
:10F9A000034618B10022026042608260184608BD1A
:10F9B000AC3B002008B5134BC01A134AA2FB00321F
:10F9C000D2080F2A0AD8104BA3FB0013DB0803EB65
:10F9D0004303990088420BD1D0B208BDFCF704FC68
:10F9E00000B101BE00231A4619461846FCF736FE40
:10F9F000FCF7FAFB00B101BE00231A46194618466F
:10FA0000FCF72CFE30230020ABAAAAAAC9B12DE92D
:10FA1000F04188461D4616460746FFF7BDFF0446DF
:10FA200090B1FFF7C7FFC4F8048020726772A67216
:10FA30002046FFF793FF55B1237A2B700020BDE8D5
:10FA4000F0816FF0010070474FF0FF30F7E70020C2
:10FA5000F5E710B582B0847A944203D900231846A2
:10FA600002B010BD4068BDF814400194049C00949D
:10FA7000FFF7BAFD03460028F1D06FF00403EEE76C
:10FA80002DE9F04383B0BDF82860FF282DD01F4634
:10FA90009146884605460021FFF74CFF044688B191
:10FAA00034B3637AAB420BD1019600974B46424682
:10FAB00029462046FFF7CDFF0346D0B92468EFE77B
:10FAC000002316E00D4B1C6800E024685CB1019631
:10FAD00000974B46424629462046FFF7BAFF0346A9
:10FAE0000028F2D005E0002303E06FF0010300E0FE
:10FAF0000023184603B0BDE8F08300BF2C2300208C
:10FB00002DE9F04105460E4617469846084C20461A
:10FB100000F087FB43463A4631462846FFF776FF1A
:10FB20000546204600F0A7FB2846BDE8F08100BF4F
:10FB3000F42300202DE9F04182B005460E46174619
:10FB400098460A4C204600F02CFBBDF8203000936C
:10FB500043463A4631462846FFF792FF054620467F
:10FB600000F04CFB284602B0BDE8F081F4230020F1
:10FB70000CB430B5A5B004460D4628AB53F8042BA1
:10FB80002393802103A81AF035FB7F2800DD7F2016
:10FB900080B2009003AB002229462046FFF7CAFF3F
:10FBA00025B0BDE8304002B07047000010B582B00B
:10FBB000284B1B78E3B1284B0093284B0C221021D3
:10FBC0002748FDF771F9E8B90023264A1360264A51
:10FBD0001360264800F05EFB08BBFFF769FE0023B8
:10FBE0001A460146FF20FFF78BFF28BB02B010BD6D
:10FBF000FCF7FAFA00B101BE00231A46194618466E
:10FC0000FCF72CFDFCF7F0FA00B101BE00200090DB
:10FC1000174B1C68034602460146A047D4E7FCF791
:10FC2000E3FA00B101BE00200090114B1C680346AE
:10FC300002460146A047D0E7FCF7D6FA00B101BE64
:10FC4000002000900A4B1C68034602460146A0476C
:10FC5000CCE700BFD83B00200CAF020030230020CF
:10FC6000AC3B0020F02300202C230020F4230020B4
:10FC70004401002030B583B08578214B1B689D423C
:10FC800032DA044605EB4502930001A91D4AD05C17
:10FC9000FFF74CFB58BB6268C2B905EB4505AA00EB
:10FCA000184B13445B686360616801988368083B84
:10FCB000994210D3A378591C114A1268914219DA5B
:10FCC00000226260A1706FF0050315E063781344B1
:10FCD00002336360E8E702232246FFF741FB034655
:10FCE00050B16FF0040307E06FF0010304E06FF020
:10FCF000040301E06FF00E03184603B030BD00BFEF
:10FD0000342400201C24002030B585B005460C4664
:10FD100003A9FFF70BFBE8B903988168082301AA40
:10FD20000839FFF71DFB0146B8B9029A114B9A42F8
:10FD300016D19DF80630022B15D1BDF80420039B87
:10FD40009B689A4212D89B1A25706360A26008468D
:10FD500005B030BD6FF00401F9E76FF00401F6E77C
:10FD60006FF00801F3E76FF00B01F0E76FF00801A7
:10FD7000EDE700BF69A2B23B08B50023114A126843
:10FD80009A4208DD03EB43018A000F498A5C8242F4
:10FD900011D00133F2E7012A11DC02EB4202930099
:10FDA00009491944FFF7B0FF034630B905490A680D
:10FDB00001320A6001E06FF00A03184608BD4FF0F7
:10FDC000FF33FAE7342400201C24002008B5837890
:10FDD0000D4A126893420ADA03EB43039A000B4B75
:10FDE000985CFFF7A3FA034658B9184608BDFCF71C
:10FDF000FBF900B101BE00231A4619461846FCF76C
:10FE00002DFC6FF00403F0E7342400201C240020B4
:10FE100070B582B006460C46154601A9FFF7D6FF1D
:10FE2000034610B1184602B070BD2A460021204694
:10FE3000FEF746FB73787168AB42A8BF2B4622469B
:10FE400002310198FFF78CFA03460028EAD06FF0E0
:10FE50000403E7E710B504462046FFF70BFF10F157
:10FE6000060FF9D010BD38B504460D462046FFF701
:10FE7000F1FF024610B92378AB42F7D1104638BDE6
:10FE800008B50A22FFF7C4FF08BD08B50122FFF735
:10FE9000BFFF08BD08B50D4B1B784BB90B4B0122BA
:10FEA0001A700B4B1B7823B10020FFF765FF50B190
:10FEB00008BDFCF799F900B101BE00231A461946A6
:10FEC0001846FCF7CBFB00F00DF8F1E718240020F2
:10FED000D83B002010B50446FFF7DCFF0023236069
:10FEE000636010BD00B585B001A8FFF7F3FF0421E2
:10FEF0000DEB0100FFF7B7FF034610F10F0F04D021
:10FF000028B1184605B05DF804FB0023F9E703A902
:10FF100001A8FFF7BAFF03460028F2D19DF80C00B4
:10FF2000FFF72AFF03460028E1D010F10B0FDED0C7
:10FF3000E7E7C38813F0010F01D10C207047302090
:10FF40007047000070B506460D460F4B1C6844B163
:10FF500031462068FEF7D0FA80B1AC4211D0A468D7
:10FF6000F5E72E600020A860074B5A681560083539
:10FF70005D60064AD3680133D36070BD4FF0FF3037
:10FF8000FBE74FF0FF30F8E73C010020C83B0020C2
:10FF900070B504460E461546FFF7CBFF05FB06F28B
:10FFA00000212044FEF78CFA267165710020E08064
:10FFB00070BD000000B583B00A4A00231360526090
:10FFC0000093012204210848FFF7E2FF034618B11D
:10FFD000184603B05DF804FB03490448FFF7B2FF7D
:10FFE0000346F5E73C010020C83B002020AF02009B
:10FFF00010B582B0114B1B7823B1114BDB685BB19C
:020000021000EC
:1000000002B010BDFCF7F0F800B101BE00231A46A3
:1000100019461846FCF722FBFFF7CCFF0028EFD06B
:10002000FCF7E2F800B101BE00200090054B1C680F
:10003000034602460146A047E2E700BFD83B002046
:10004000C83B00204401002038B504460D46074B4C
:10005000DB6813B9FFF7AEFF20B929462046FFF74A
:1000600071FF38BD4FF0FF30FBE700BFC83B0020F9
:1000700030B583B005469DF818400094FFF788FF1F
:10008000034610B1184603B030BD29460798FFF764
:10009000DBFF0346F6E708B5FCF7E0FA014B012267
:1000A0001A707047D83B0020014B00221A7070472D
:1000B000D83B002070B582B00C4616469DB2079B17
:1000C00000930346069A29462046FCF7EDFE08B148
:1000D00002B070BD2B46069A92B221463046FDF71B
:1000E00057FCF5E770B50D460668318AA94215D967
:1000F0001946044628469047064690B12B460022F2
:100100002168FDF7FFFC60B929462068FDF751FD25
:100110002068FDF7C8FF2060304670BD00230360F3
:10012000FAE73046FDF777FC0026F5E790F8203037
:10013000013B80F820307047C36913F0FF2F06D1D0
:1001400090F820300BB90020704701207047012043
:100150007047838B33B990F820300BB9002070477B
:10016000012070470120704710B50446C37F1BB9BA
:10017000837F80F8203010E0012380F82030143095
:1001800019F0C6FBE37F013BE37709E004F10C00C3
:1001900019F0BEFBA37F013BA377A37F002BF5D112
:1001A00010BD38B504464FF0FF31FEF769F8204620
:1001B000FFF7C2FF40B1A37F0133A377002520469C
:1001C000FDF7FEFF2DB138BD237F013323770125D5
:1001D000F5E74FF0FF3104F10C0019F0CBFB4FF0C5
:1001E000FF312046FEF74CF8237F0133237720466A
:1001F000FFF79CFF2046FDF7E3FFE4E710B5044658
:100200004FF0FF31FEF73CF8237F013BDBB2237751
:100210001BB12046FDF7D4FF10BD2046FFF7A4FF19
:10022000F7E738B504464FF0FF31FEF729F82046CE
:10023000FFF78FFF40B1E37F0133E37700252046CE
:10024000FDF7BEFF1DB138BD01256577F7E74FF01B
:10025000FF3104F1140019F08DFB4FF0FF312046FF
:10026000FEF70EF8012363772046FFF75FFF204675
:10027000FDF7A6FFE7E710B504464FF0FF31FDF7A5
:10028000FFFF002363772046FFF76EFF2046FDF750
:1002900097FF10BD10B5044624220021FEF710F987
:1002A0002046FDF783FF00B110BD002104F10C00D2
:1002B00019F025FB0028F7D1002104F1140019F0F2
:1002C0001EFBF1E7082832D8DFE800F00A0F141906
:1002D0001E232D052800164A536D013353657047C0
:1002E000134A936C013393647047114AD36C013302
:1002F000D36470470E4A136D0133136570470C4A7F
:10030000936D013393657047094AD36D0133D3650B
:100310007047074A136E013313667047044A936EA1
:10032000013393667047024A536E01335366704738
:10033000E03B002010B5038803F0070413F0800FA2
:1003400014D0042C07D1124B5A6B01325A63DA6B6A
:100350001144D96313E010460D4B5A6A01325A62B8
:10036000DA6A1144D962FFF7ADFF08E0042C07D028
:10037000074B9A6A01329A621A6B1144196310BDD5
:10038000034B9A6B01329A631A6C11441964F6E7B5
:10039000E03B002010B5044601E0FDF73CFB23687C
:1003A0003BB1A3F110005B682360002BF5D16460C2
:1003B000F3E710BD08B509F029FB002009F050FC57
:1003C00000230D4A19460D4815F0E6FD06F088F8A1
:1003D00006F010FB0A48FCF7B5FC10B142689047E4
:1003E000F8E7FBF701FF00B101BE00231A461946EA
:1003F0001846FCF733F900BF19660100DD650100FE
:10040000603D002008B5012006F04CFA00B908BD97
:1004100006210248FCF7F6FAF9E700BFD83D0020B4
:1004200008B5002003F0A4FE08BD08B506F052FA96
:1004300008BD0000F8B50AE0134660325A6610E0C5
:10044000184AD3690133D3612846FDF7E4FA164B05
:100450001C6E2CB3A4F110056368134A1366002BBD
:10046000EAD054F8100C19F092F9074654F8100C21
:10047000023019F08CF9064604212846FDF799FB55
:1004800007F440522388B342DAD1B2F5805FD7D85F
:10049000002ED5D032463946284603F039FBD6E740
:1004A000F8BD00BFE03B0020503D002008B5FFF73D
:1004B000C1FF08BD2DE9F04111E013464832DA646E
:1004C0001BE03146384603F0E1F808E03246414689
:1004D000284601F05DFB17B13846FDF79CFA214B29
:1004E0009C6C002C3BD0A4F11007FDF785F91D4A48
:1004F000936C5B689364002BDFD0FDF783F904F104
:10050000080654F8108C98F8005005F00F052A469C
:1005100021883046FFF70EFF237A03F00703013BE3
:10052000032B17D801A252F823F000BFCD0401001D
:100530003D05010049050100C3040100324639466A
:10054000284607F065FFC6E732464146284602F0D6
:100550002DFEC0E7044A936901339361BBE7BDE810
:10056000F08100BF503D0020E03B002008B5FFF7C0
:10057000A1FF08BD08B50023184604E0044AD25C78
:10058000104300020133032BF8DD19F05FFB08BDB7
:10059000F43C0020F8B504461021FCF794FDE8B1C6
:1005A0000646048283681B8823F003039BB202681B
:1005B000043202601F4642799B1A043BE41A054646
:1005C000002C10DD0021A0B2FCF76EFD18B1E86030
:1005D000E41B0546F4E73046FDF71DFA034A136AAB
:1005E0000133136200263046F8BD00BFE03B002017
:1005F0001B3880B2E02801D80120704700207047E6
:10060000A0F5A47080B244F24813984201D80120AA
:1006100070470020704731B1437903F0C003402B8D
:1006200003D000207047002070470120704741B17F
:10063000437903F0C003C02B01D000207047012094
:1006400070470120704741B143799B0903D0012BCA
:1006500005D000207047022070470020704701201D
:1006600070470023052B03DCC25C1AB90133F9E79C
:10067000002070470120704710B500231A4603E0A0
:10068000845C23449BB20132042AF9DD427902F0F2
:100690003F010B449BB2F3B140F23A54A3421DD048
:1006A00002F0C002C02A1BD0402A09D0F2B901468C
:1006B00006220F48FDF7B8FE034668B101230BE0A0
:1006C000C37802791344C9180CD040F23D239942F3
:1006D0000AD0012300E00023184610BD0023FBE7E9
:1006E0000123F9E70023F7E70023F5E70023F3E709
:1006F000F43C002008B503280BD8DFE800F0020620
:1007000002060548FFF7ADFF08BD0846FFF7B4FF36
:10071000FAE70020F8E700BFF43C002070B5052997
:100720001CD9114B1B6813B10C24204670BD164612
:10073000054607F011FF044690B94EB12846FFF771
:100740009BFF78B1094B2A681A60AA889A80ECE767
:1007500001F0C6FA0028F1D00C24E6E71224E4E701
:100760000C24E2E71224E0E7A83E0020EC3C002045
:1007700008B541B1064B062201461846FDF754FE66
:1007800018B9012008BD034BF5E70020FAE700BFC8
:10079000EC3C0020F43C002008B9024870470248B5
:1007A000704700BFF43C0020EC3C002038B509F055
:1007B00055FD05460B4B1C7A09F056FD45B9631EE5
:1007C000032B05D8DFE803F002080B0501F066FAF9
:1007D00038BD02F077FAFBE707F0DAFDF8E702F040
:1007E00080FAF5E7503D002008B500F11001002324
:1007F00040F8143F054BDA6C1160D86403F13801FE
:1008000003F11000FCF759FA08BD00BF503D00206D
:1008100038B5044600F11005FCF7EEFF2346002230
:1008200043F8142F064C626E15606366FCF7EAFF0E
:1008300004F1500104F11000FCF73FFA38BD00BF8D
:10084000503D002010B51446007800F00F00114B09
:100850001B7A013B032B15D8DFE803F009100C02CB
:1008600009F0F6FC0146204602F0D8FE10BD01F06A
:10087000B1F9FBE7214602F01BFDF7E7214607F03F
:100880008DFCF3E7044A9369013393614FF0FF3025
:10089000ECE700BF503D0020E03B0020F8B50546E6
:1008A0000B8803F08002C3F3C0160478407803F08D
:1008B0000703042B0BD004F00F040AB3082C0DD847
:1008C000DFE804F0140A140A141A142F2F00284623
:1008D00002F09EFF044632E00C2805D02B4A536CF0
:1008E0000133536401220CE000220AE0831FDBB2D3
:1008F0001F2BF3D8002204E02228EFD1002200E0D1
:1009000000220B7803F00703022B25D0032B36D0EF
:10091000012B08D01D4A9369013393614FF0FF34D6
:100920000DE00022EDE762B100273246394620464D
:1009300001F008F9044617B13846FFF755FF204685
:10094000F8BD0230FFF726FE07460028EDD001462D
:10095000284608F063FFE8E732B100273146384601
:1009600007F0D2FC0446E6E70230FFF713FE074625
:100970000028F3D00146284608F050FFEEE70A466B
:100980003146284602F0A8FC0446D8E7E03B0020A8
:1009900038B559B115460C4603468A7E497E204635
:1009A000FDF7DAF8E37E2B70A07E38BDFBF71CFC68
:1009B00000B101BE00231A4619461846FBF74EFE49
:1009C000014B1872704700BF503D0020014B187A50
:1009D000704700BF503D002008B501460148FCF7B4
:1009E0006CF908BD603D00204FF0FF3040F2FF3150
:1009F00070470000014BD3E900017047503D0020D3
:100A000038B5FCF7F9FE044609F064F908F088FAF5
:100A100007F0C6FD06F036FC2046FCF7F3FE01F0B9
:100A200047F9134C2046FFF7B5FCA4F11800FFF777
:100A3000B1FC4FF4807200210E48FDF741FD002506
:100A400004F8545C04F8535C03F096F905F0EAFDF1
:100A500008F06EFA2846FFF7B3FF074B1D609D8034
:100A600008F064FB06F03AFB08F0D0FF38BD00BF89
:100A7000B03D0020EC3B0020EC3C00200A30C000E0
:100A80007047000008B503290FDC194B33F811300B
:100A900083422AD8C01A012911D0022915D003296E
:100AA00016D0C1B9C0F30F100BE0FBF79DFB00B1EE
:100AB00001BE00231A4619461846FBF7CFFDC0F3C6
:100AC000CF001B2838BF1B2008BDC0F38F00F8E7FC
:100AD000C0F38F10F5E7FBF787FB00B101BE0023E1
:100AE0001A4619461846FBF7B9FD1B20ECE700BF74
:100AF00030AF0200F0B58DB0514B1B78002B7BD08E
:100B000000230893CDF82330062208A94D48FDF7AD
:100B10008BFC88B900230693ADF81C300A93CDF8FE
:100B20002B3006220AA906A8FDF77EFC00286DD00E
:100B3000444B00221A609A8006F088FB424C04263F
:100B40006672FF23638104F110073846FCF7A8F8AA
:100B50000025234643F8605F6366234643F8485FF9
:100B6000E364A56325646564384BE3632565A56587
:100B7000E565374B6365A56625676567354BE366B5
:100B8000A567C4F88050C4F88450334BE3672B4604
:100B9000324A394604F18800FBF708FF05F042FDB0
:100BA00008F0C6F901F0ACF807F01EFD03F048F9B3
:100BB00006F07AFA05F02CFFFFF7DCFCFF22002399
:100BC000C4E90023264B019300952B464022314671
:100BD0002448FFF74DFA30BB78230393224B02934E
:100BE0004FF0FF33019300230093204A1C49204813
:100BF000FCF776FC0DB0F0BDFBF7F6FA00B101BED4
:100C000000231A4619461846FBF728FD04A808F0E9
:100C100029FB002890D10B4A0CAB53F81F1D116023
:100C20009B88938088E7FBF7DFFA00B101BE0020C4
:100C30000090104B1C68034602460146A047CBE7D4
:100C4000D83B0020F43C0020503D00206D05010001
:100C5000AD0401002B040100210401000504010082
:100C600028AF0200E03B002038240020B50301003B
:100C7000FC3C002044010020837813F0010F06D1D2
:100C800013F0020F01D1272070472620704725203E
:100C90007047837813F0040F06D113F0020F01D1CF
:100CA00025207047262070472720704738B5054615
:100CB0000C46FCF7A1FD6B891C436C81FCF7A2FD7F
:100CC00038BD38B504460D46FCF796FD618921EA2A
:100CD00005016181FCF796FD38BD38B5044600F189
:100CE0003405012300F128024179284606F088F9ED
:100CF00060B9237913F0010F0DD001212046FFF7D1
:100D0000D5FFA38913F0040F0AD138BD0121204675
:100D1000FFF7CCFFF5E701212046FFF7D2FFF0E710
:100D2000002304F13A026179284606F069F940B9D6
:100D3000637913F0010F09D102212046FFF7C1FFAB
:100D4000E3E702212046FFF7B1FFDEE7022120465C
:100D5000FFF7ACFFD9E710B50446FCF74DFD6389FA
:100D600023F030036381FCF74DFD10BD10B5044640
:100D7000002008F075FF04F154010648FBF79DFFC1
:100D80000020FFF71DFE2046FFF7E5FF024B002283
:100D90001A6010BD603D0020F83D002010B50446EB
:100DA00005F0F7FAC0B90CB90E4810BDFBF71CFAF4
:100DB00000B101BE00231A4619461846FBF74EFC47
:100DC000084800EBC310428912F0800F02D042782D
:100DD000A242EAD0013300E00023002BF0D0002033
:100DE000E3E700BFFC3D002010B50446FCF704FD1E
:100DF000638913F0300F07D123F0300343F0100361
:100E00006381FCF7FFFC10BDFBF7EEF900B101BEFA
:100E100000231A4619461846FBF720FC38B5084B44
:100E20001C780C448461C461838913F0080F00D1DD
:100E300038BD0546034818F04FFD04442C62F7E71F
:100E4000504200200088130038B504460067114B5B
:100E50004367012180F86410C079FFF70FFEA38972
:100E600013F0040F05D113F0010F04D000F55570F5
:100E700001E000F5FB70E569074B1B78EB1AA366F0
:100E8000002384F866301E3018F026FD2844E06602
:100E900038BD00BFB50F010050420020F8B5044630
:100EA0000B21FFF70EFF3F492079FFF723FC0028B5
:100EB00073D0A38913F0010F01D0236D4BB12379B7
:100EC00013F0010F0CD0628942F001026281354AB1
:100ED00007E0022015F0CCF8002860D02065EEE78E
:100EE000314A1168A1629288A285A28912F0040F8A
:100EF00033D1012B41D801232370A38913F0080FAC
:100F00003FD040F6A66363612046FFF7B5FEA071AF
:100F100006F01CFA074618F089FD244B83FB0023DA
:100F2000C517C5EB233542F2107303FB150518F006
:100F3000CEFC0646284618F0CFFC3044E06120463F
:100F4000FFF782FFA36EDB1B22D40022184904F1B5
:100F5000640007F03DFE0020F8BD224652F8341F21
:100F6000C4F83A109288E287627912F0010FC0D07B
:100F7000628942F002026281BBE72046FFF7ADFEC4
:100F8000B9E7228A40F2712303FB02F36361BBE7F6
:100F9000A766E26ED31AE366D7E71220DCE70720E4
:100FA000DAE700BFEC3C0020F43C0020AD8BDB68AE
:100FB0001D0E010038B50546C468314B1C60204643
:100FC000FFF712FF638913F4C06F15D194F909007C
:100FD00008F046FE2B4A2C49A07908F055FE88B946
:100FE00068682A4B1B78A978184409F081F898B1F1
:100FF000274A136F013313672046FFF7B7FE012519
:10100000284638BDFBF7F0F800B101BE00231A46B0
:1010100019461846FBF722FB08F0DEFDFF2323727A
:1010200006F03CF800B309F029F9A38913F0100F7A
:1010300002D013F0030F1AD12146164808F0E2FD42
:1010400000222146144809F071F805460028D3D142
:10105000E37893B108F0DCF80120FFF7B1FC0C4A0B
:10106000D36E0133D366CBE709F018F9DDE7002131
:10107000084608F0C7FD0222E3E708F0CDF8EBE7E9
:10108000F83D002055555500D6BE898E50420020AF
:10109000E03B00206D0D01009D10010070B50C4675
:1010A0000B6C33B3197C8D1DEDB2A38913F0040FC3
:1010B00021D0638913F0020F25D101230C250021D3
:1010C0001F2928D8AE1CE671668916F0010F01D0E1
:1010D00043F040031370234653F8282F02609B8887
:1010E0008380831DA28912F0040F1ED129BB2846DC
:1010F00070BD0021D7E713F0010F08D113F0020FE4
:1011000007D00623DCE781230C250021D8E7002344
:10111000D6E70223D4E7FBF767F800B101BE00234E
:101120001A4619461846FBF799FA224652F83A6FC2
:10113000C0F8066092889A80D8E70A460021206CA1
:10114000FCF70AFDD3E738B50C468B6CEBB1197C84
:101150001F2910D88D1DEDB2638913F0010F16D130
:1011600004231370224652F8283F0360938883803B
:1011700079B9284638BDFBF737F800B101BE002326
:101180001A4619461846FBF769FA0021E2E744239C
:10119000E7E7831D0A460021A06CFCF7DDFCE8E7C9
:1011A00010B50446084A936F01339367643007F023
:1011B0006BFE2046FFF76DFDA07104F1540103485A
:1011C000FBF77BFD10BD00BFE03B0020603D002031
:1011D000438913F4C06F23D010B5044613F4007F85
:1011E0000ED0436C33B1006CFCF715FC636C2364C8
:1011F000002363644FF400712046FFF762FD10BDC9
:1012000013F4806FFBD0806CFCF705FCE36CA364E7
:101210000023E3644FF480612046FFF752FDEEE7C0
:101220007047000038B5037803B938BD044606F0AE
:1012300073F804F1640007F027FEFCF7DDFA0546B9
:10124000FFF7C4FB012816D02846FCF7DBFA04F1AF
:1012500054010E48FBF7C8FD206D18B114F036FF9D
:10126000002323652046FFF776FD002323702046E8
:10127000FFF7AEFFD9E708F02DFD0020FFF7A0FB38
:10128000034B00221A6006F0EFFFDDE7603D00200F
:10129000F83D002010B50C46FFF780FD68B1012C29
:1012A00004D064B9FFF7BEFF002010BD02780AB178
:1012B0000020FAE7FFF7F2FDF7E74220F5E71220FA
:1012C000F3E72DE9F041054617469846BDF818604A
:1012D000046849B114B12046FCF79DFB002130465B
:1012E000FBF7F1FE0446E8B174B1238A3344BB42F4
:1012F00014DC324641462046FCF79FFB90B1204665
:10130000FCF789FB00240DE0FAF76EFF00B101BE87
:1013100000231A4619461846FBF7A0F92046FCF7A9
:101320007AFB00242C60BDE8F081F0B583B007465D
:101330000E461D461046FFF731FD002842D00446F8
:10134000838913F0020F02D113F0100F3CD0032D4C
:101350003CD113F0100F01D01F2E3AD8032D21D00D
:10136000012D00D000252378F3B1E36C4BB14FF48D
:1013700080612046FFF7A5FCE06CFCF74CFB0023E6
:10138000E36400963B461F22294604F14C00FFF718
:1013900098FFE36CFBB14FF480612046FFF786FCB9
:1013A000002014E00125DEE700963B461F22294677
:1013B00004F14800FFF785FFA36C0BB1002006E0A5
:1013C000072004E0422002E0122000E0122003B0D7
:1013D000F0BD1220FBE70720F9E7F0B583B0074620
:1013E0000E461D461046FFF7D9FC00284FD0044694
:1013F000838913F0100F07D013F0040F07D004F007
:10140000C8FF20B1122047E013F0020F41D1032D95
:1014100041D1A38913F0100F01D01F2E3ED84021D7
:101420002046FFF74EFC032D21D0012D00D00025D2
:101430002378F3B1636C4BB14FF400712046FFF792
:1014400040FC606CFCF7E7FA0023636400963B46BF
:101450001F22294604F14400FFF733FF636CFBB100
:101460004FF400712046FFF721FC002014E0012515
:10147000DEE700963B461F22294604F14000FFF7B5
:1014800020FF236C0BB1002006E0072004E042207F
:1014900002E0122000E0122003B0F0BD1220FBE7B2
:1014A0000720F9E770B505460E46104B1C6806E0AC
:1014B00094F8923013F0010F15D1D4F8B84084B1EC
:1014C0000622294604F19300FCF7AEFF0028F4D170
:1014D000012EEDD094F8923013F0010FEDD10120E0
:1014E00000E0002070BD0120FCE700BFD0400020DC
:1014F0002DE9F84F07460E464F4BD3F800800D6894
:10150000062205F1080108F12800FCF78DFF0028EC
:1015100040F085808246032F22D098F8034004F0E3
:1015200002042B7813F0400F1FD04FF00109023551
:1015300005F0B4FDE0B9002C50D1338B43F04003EB
:101540003383032F54D0052F6FD149462846FFF728
:10155000A9FF00286CD14FF0FF331846BDE8F88F83
:1015600098F8034004F00104DBE74FF00009DEE7E0
:1015700049462846FFF74FF8834600B307F0D4FFEB
:1015800040B288F80800002814DB338B43F48063F2
:10159000338398F90820002CCDD0362303FB02F3C7
:1015A00003F12005254A1544043512F803904FF045
:1015B000010AC0E7002CBED04FF0FF33CDE749460B
:1015C000284605F015FB28B142782AB9C3784BBBF1
:1015D000DA46B0E7DA46AEE7DA46ACE752464946C5
:1015E000284607F0BFFD0028A7D14FF0FF33B4E72E
:1015F0004146134808F006FB00224146114808F016
:1016000095FD03460028A8D1328B42F010023283A8
:101610000D49D1F894200132C1F894209DE74FF094
:10162000FF339AE74FF0FF3397E74FF0FF3394E72C
:101630004FF0FF3391E700BFF83D0020004100204C
:101640006D0D010047110100E03B00202DE9F8433A
:10165000938913F0100F03D1548914F0080F69D047
:101660000C8804F48066871C14F0400F64D0047862
:1016700014F0400F19D04FF0010814468946054672
:1016800013F0040F1DD09EB192F90820362303FBFE
:1016900002F303F120012B4A1144043112F80380B4
:1016A0006379434506D0002547E04FF00008E4E7A2
:1016B0003946F5E7062204F13400FCF7B5FE0028B0
:1016C0003ED1A6B9A3891B0983F0010303F00103EE
:1016D0004A464146284602F061FA054668B36389E6
:1016E00013F0080F29D12046FFF79CFD25E03B6849
:1016F000C4F82E30BB886386394694F9080005F09B
:1017000055FC94F90830362202FB03F320330D49CF
:101710000B4453F8040FC5F802009B88BB8094F972
:10172000083002FB03F211F8028008F102085FFAA8
:1017300088F8C7E7002500E000252846BDE8F883C3
:101740000025FAE70041002010B50446838913F014
:10175000080F03D12046FFF765FD10BD0346026D5B
:101760003C21002002F03AFC00232365F2E7000050
:1017700010B582B00378B3B1044690F8653083B9F0
:10178000838913F0080F18D0002201A904F1640026
:1017900007F084FAB8B90E4B1B78019A1344A36181
:1017A000E36102B010BDFAF71FFD00B101BE0023D6
:1017B0001A4619461846FAF751FF42F2107018F00F
:1017C0008BF80246E1E72046FFF7EAFCE9E700BFB5
:1017D0005042002010B5044680220021FCF770FE24
:1017E0004FF40063E38123820723A3700023636522
:1017F000236684F85430034BA365E4651223A38168
:1018000010BD00BF4D1901000379012B03D9438995
:1018100013F4807F00D1704710B50446FFF75DFADE
:101820004FF480712046FFF74CFA10BD2DE9F041CE
:101830000378002B47D0044605F06EFD2046FFF7E5
:10184000C7FC04F16405284607F01EFB04F15406AA
:1018500031463748FBF7C8FA2046FFF71AFAA37952
:1018600083423AD00133DBB2A371A3F125010122F7
:101870008A40A1780A4201D10133A37118F027F8F8
:101880002C4B1B781844E0610127A38913F0080F43
:1018900003D0E269236A9A4240D22046FFF7B4FFA0
:1018A0002046FFF7D1FA002F3CD0284607F0B0FAC7
:1018B00000283AD0204A536F0133536731461C4801
:1018C000FBF7FBF931E0FAF78FFC00B101BE002312
:1018D0001A4619461846FAF7C1FE06F0C5FC20461E
:1018E000FFF7CAF9A071606917F0F6FF8046A0699A
:1018F0004044A061E0610F4B1F78C71B17F0E7FF62
:10190000381A01D40027C0E7002805DAA369434448
:10191000A361E3614044F7E70027B6E72046FFF7FD
:1019200013FF02E02046FFF723FFBDE8F08100BF70
:10193000603D002050420020E03B002010B50446EE
:10194000FFF709FA2046FFF771FF10BD08B5806860
:10195000FFF76CFF08BD000010B50024002C00DD6F
:1019600010BDE201064BD018D35C13B10379012BF3
:1019700001D80134F2E74FF48071FFF797F9F8E7E7
:10198000FC3D002010B50446FFF783F9A07104F177
:1019900054010248FBF791F910BD00BF603D0020E3
:1019A00010B50A4B1C6884B1002008F059F904F105
:1019B00054010748FBF781F90020FFF701F8034CB9
:1019C0002068FFF7C8F90023236010BDF83D002010
:1019D000603D00200F2961D103463E4A1278002A5B
:1019E0005ED1F0B404884588867B0179042959D8F2
:1019F000DFE801F003051B1D1100132218E0194652
:101A0000354C51F8070F20608988A18016461D22A9
:101A100000252C460CE019462F4E51F8070F306078
:101A20008988B1801646152202E0122200E01022B9
:101A300012F0080F0BD1AC4236D81F2C36D9B4F5B2
:101A4000804F35D81F2D35D9B5F5804F34D8597909
:101A5000032933D89979012933D81E4900204872C7
:101A60005979012912D8597B11F0F80F2BD161B3A4
:101A7000032E2CD85F79174807719B794371C67084
:101A80008170C48105828281002018E01946124FBE
:101A900051F8070F38608988B980E4E71220704751
:101AA0000C20704712200AE0122008E0122006E005
:101AB000122004E0122002E0122000E01220F0BC0C
:101AC00070471220FBE71220F9E71220F7E71220F7
:101AD000F5E700BFFC3D0020303E002000230370EE
