:10C000003DB8F396000000002000000048720200D6
:10C010000000000000000000000000000000000020
:10C020000000042021C100007DC100007FC100008C
:10C0300081C1000083C1000085C100000000000034
:10C040000000000000000000000000009BE800006D
:10C0500089C1000000000000E1E800000BE90000D9
:10C060008FC100008FC100008FC100008FC1000090
:10C070008FC100008FC100008FC100008FC1000080
:10C080008FC100008FC100008FC100008FC1000070
:10C090008FC100008FC100008FC100008FC1000060
:10C0A0008FC100008FC100008FC100008FC1000050
:10C0B0008FC100008FC100008FC100008FC1000040
:10C0C0008FC100008FC100008FC100008FC1000030
:10C0D0008FC100008FC100000000000000000000C0
:10C0E0008FC100008FC100008FC100008FC1000010
:10C0F0008FC100008FC100008FC100008FC1000000
:10C100008FC100008FC100008FC10000000000003F
:10C110008FC1000000000000000000008FC100007F
:10C120004FF000000C4A0D4B9A42BCBF42F8040B82
:10C13000FAE70B490B4A0C4B9B1A03DD043BC8582A
:10C14000D050FBDC09480A4900F022F80948804732
:10C1500000F044F808480047800500200C44002007
:10C16000102E03000001002058050020104400207C
:10C1700050FE032059C300005DC40000FEE7FEE747
:10C18000FEE7FEE7FEE7FEE7FEE7FEE7FEE7FEE787
:10C19000024B186059609860704700BF0001002092
:10C1A000031E09DB0C4A90685268121A9A420FDB90
:10C1B0000344094A93607047074A90680344126831
:10C1C000934202D3044A936070474FF0FF307047A8
:10C1D0004FF0FF30704700BF000100204FF0804358
:10C1E0000122C3F878257047024B186800F001005F
:10C1F000704700BFF0ED00E008B5FFF7F5FF00B1B4
:10C2000001BEBFF34F8F0549CA6802F4E062044BD8
:10C210001343CB60BFF34F8F00BFFDE700ED00E09D
:10C220000400FA054FF08043D3F818240F4B134055
:10C23000B3F1011F18D04FF080430122DA600021D2
:10C24000C3F80411C3F818259A604FF08043D3F85F
:10C250000431002BF9D04FF08043D3F81824034B5E
:10C260001340B3F1011FF0D1704700BF030001007C
:10C27000064B1B68082B01D000207047044B1B683D
:10C280000BB1002070470120704700BF3001001043
:10C2900034010010064B1B68082B01D000207047AA
:10C2A000044B1B680BB1002070470120704700BF92
:10C2B0003001001034010010064B1B68082B01D020
:10C2C00000207047044B1B680BB100207047012011
:10C2D000704700BF3001001034010010064B1B688E
:10C2E000082B01D000207047044B1B680BB10020C5
:10C2F00070470120704700BF30010010340100106A
:10C30000064B1B68082B01D000207047044B1B68AC
:10C310000BB1002070470120704700BF30010010B2
:10C3200034010010064B1B68082B01D00020704719
:10C33000044B1B680BB1002070470120704700BF01
:10C340003001001034010010014B024A1A6070479E
:10C350000C0100200090D00308B5FFF789FF40B121
:10C360004FF080430022C3F80C21C3F81021C3F81A
:10C370003825FFF78FFF10B12D4B2E4A1A60FFF7BB
:10C380009BFF18B12C4BFB22C3F81825FFF7A6FF23
:10C3900048B12A490B6823F00F03294A126802F0BA
:10C3A0000F0213430B60FFF7ABFF18B1254B4FF49F
:10C3B00000721A60FFF7B6FF10B1234B234A1A60D0
:10C3C0004FF01023D3F80C3213F0010F04D1FFF714
:10C3D000BBFF00F0A3FB08BD1D4B0122C3F80425E1
:10C3E0001B4BD3F80034002BFAD04FF01022D2F8B8
:10C3F0000C3223F00103C2F80C32154BD3F8003491
:10C40000002BFAD0124B0022C3F80425104BD3F8AE
:10C410000034002BFAD0BFF34F8F0E49CA6802F4E4
:10C42000E0620D4B1343CB60BFF34F8F00BFFDE7BE
:10C430008C5600404881030000F00040E40E0040AC
:10C44000580200104096024000960240000404008A
:10C4500000E0014000ED00E00400FA0508B50348E3
:10C4600000F080FC00F0E6FC08BD00BFE5C700005E
:10C470007047000008B50346024A0321002005F07A
:10C480002FF908BD0015030000B59FB00DF1730131
:10C49000002019F05BF840B10346284A0321002030
:10C4A00005F01EF91FB05DF804FB6022002102A810
:10C4B00002F09EFA06238DF8083001238DF82B3008
:10C4C00080238DF82A301E4B09930A238DF82830DB
:10C4D00001238DF829301B4B1A681EAB43F8042D3D
:10C4E000039301238DF810308DF8113002A814F059
:10C4F00021FC034628B1144A0321002005F0F0F87E
:10C50000D0E70021CDF86A10CDF86E1002238DF827
:10C5100068308DF869309DF8730001910B4B0093E2
:10C520001AAB6FF0004214F053FB03460028B9D059
:10C53000074A0321002005F0D3F8B3E740130300B6
:10C54000681303003C1303007413030011C60000BA
:10C55000A013030008B500201DF0DAFD10B9FFF7A5
:10C5600093FF08BDFFF740FE00B101BE00231A464D
:10C570001946184600F0ECFA30B587B00446038C33
:10C58000827C00921D4A0121002005F0A9F804F1E7
:10C59000130000F063F92379194A0121002005F006
:10C5A0009FF8601D00F05AF9637E164A01210020B1
:10C5B00005F096F804F11A0000F050F9E37A124AF7
:10C5C0000121002005F08CF804F10C0000F046F980
:10C5D000638CA18CE08C227802F00104C2F3400548
:10C5E000C2F3800204920395029401900091074ADD
:10C5F0000121002005F074F807B030BD1C150300C0
:10C600004C1503007015030098150300BC150300BA
:10C6100070B592B004460378112B00F2CC80DFE8AD
:10C6200003F00933CA48CACACACACA6771CACACAA1
:10C6300090A9CAB54268DAB9604B0092604A0121FC
:10C64000002005F04DF863683BB907A9208914F074
:10C6500057FA78B907A8FFF78FFF5A4A012100203F
:10C6600005F03EF864680CB3FFF70EFF00241DE0F0
:10C67000554BE2E7FFF7B8FD00B101BE00231A46B3
:10C680001946184600F064FA4368504A0121002018
:10C6900005F026F804F10800FFF76EFF494A012172
:10C6A000002005F01DF8FFF7EFFE0024204612B031
:10C6B00070BD4368464A0121002005F011F807A922
:10C6C000208914F01DFA044640B907A8FFF754FF6B
:10C6D0003C4A0121002005F003F8E7E7FFF784FD5D
:10C6E00000B101BE00231A461946184600F030FA80
:10C6F0004368384A0121002004F0F2FFFFF7C4FE2E
:10C700000024D3E74368344A0121002004F0E8FF05
:10C7100007A9208914F0F4F9044640B907A8FFF7E7
:10C720002BFF284A0121002004F0DAFFBEE7FFF7C3
:10C730005BFD00B101BE00231A461946184600F001
:10C7400007FA8388C188007A627A02F00104C2F392
:10C750004005C2F38006C2F3C00205920496039519
:10C760000294019000911D4A0121002004F0B8FFBD
:10C7700000249BE78388C288018901910092184AAE
:10C780000121002004F0ACFF00248FE707A9808876
:10C7900014F0B6F928B90DF127001CF015FA0124A0
:10C7A00084E7FFF721FD00B101BE00231A461946B8
:10C7B000184600F0CDF9002478E700BFC813030045
:10C7C000DC130300E4240300D4130300F813030074
:10C7D00010140300301403005014030074140300F9
:10C7E000D014030010B582B005F00EFD00F016F96C
:10C7F00005F010FD134B144ADA60144A1A61144A0A
:10C800001A60144A1A6200F0F9F848B1FFF7ECFC1C
:10C8100000B101BE00231A461946184600F098F9E7
:10C82000684602F063F90C4C2146684602F0D2F9E2
:10C8300020461CF061FF02F07FFC00F06FFD00F06D
:10C840003CFDFAE7C802002075C4000055C5000091
:10C850006DC90000458C02008005002030B587B00E
:10C8600043790279C17884784578007804900395FB
:10C87000029401910092034A0121002004F030FF4C
:10C8800007B030BD1C16030010B5048A8C4209D3D2
:10C89000944209D81946029B18F0C4FE034620B101
:10C8A0000E2302E00D2300E00D23184610BD00000A
:10C8B00030B585B0144693681D68294928461CF098
:10C8C000FDF9D8B923786BB902F03EF804A941F814
:10C8D000040D0422606800F0BFFD034660B91846ED
:10C8E00005B030BDFFF780FC00B101BE00231A4641
:10C8F0001946184600F02CF91123F0E7194928468B
:10C900001CF0DCF908BB23785BB1012B13D1606804
:10C9100000230093144B01221146FFF7B5FF034695
:10C92000DDE701221049606800F096FD034600280B
:10C93000D5D01123D3E7FFF757FC00B101BE002388
:10C940001A461946184600F003F9FFF74DFC00B1EE
:10C9500001BE00231A461946184600F0F9F800BF38
:10C960003C160300501603009905002010B58CB04A
:10C9700004460378022B1CD0032B2AD0012B09D0AC
:10C98000FFF732FC00B101BE00231A4619461846D3
:10C9900000F0DEF8836802A958681CF0ADF9A3889E
:10C9A00000930346124A0021084604F099FE0CB099
:10C9B00010BD836802A918681CF09EF9A388E2885C
:10C9C0000192009303460B4A0021084604F088FEBA
:10C9D000EDE7836802A918681CF08EF9A38800931C
:10C9E0000346054A0021084604F07AFEDFE700BF4F
:10C9F000641603008C160300CC16030008B5064825
:10CA000016F05CFF034608B1184608BD024816F050
:10CA100031FF0346F8E700BF0C17030008B500F02C
:10CA20001BFA04F0AFF805F089FB03F057FD02F0A4
:10CA300025FB1DF087FC04F0BBFA04F0E9FF04F0CD
:10CA40006DFE17F0A3F905F099FA02F02DFB08F03E
:10CA5000F5F81CF01DFF1CF089FF1CF0D9FD1CF03F
:10CA600051FE1DF0F9F904F0A5F902F09DF802F06D
:10CA7000A7F900F00BF806F0E1FE07F02FF807F039
:10CA800061F902F061FA07F019FA08BD08B50E4B1A
:10CA90001B782BB10D490E4805F090FD50B908BD2B
:10CAA000FFF7A2FB00B101BE00231A461946184643
:10CAB00000F04EF8FFF798FB00B101BE00231A46C4
:10CAC0001946184600F044F8843500204C1703003E
:10CAD00058010020014B93F9000070479A0500208F
:10CAE000032803D8034B1870002070476FF0010033
:10CAF000704700BF9B05002008B5FFF7F1FF034614
:10CB000008B1184608BD0349034805F049FD03462E
:10CB1000F7E700BF9B05002058010020094A0A4B97
:10CB20009A420AD0002306E0074A52F82310054A29
:10CB300042F823100133352BF6DD024A034B9A608D
:10CB4000704700BF0000002020C0000000ED00E0A2
:10CB500008B5754604460E4601F0ECFC03F0F8FB00
:10CB60006CB1334622462946074803F005FD074BC2
:10CB70004FF000425A60BFF36F8FFFF73DFB29462D
:10CB8000034803F0F9FCF2E76C17030000ED00E046
:10CB90005C17030000B583B0044603F0D9FB1B4DBE
:10CBA00069682268C1F30801194803F0E5FC2068B0
:10CBB000836842680168C0680090164803F0DCFC96
:10CBC00023690093E368A2686168134803F0D4FC0A
:10CBD000236A0093E369A2696169104803F0CCFC01
:10CBE0002068836942690169C06900900C4803F0BC
:10CBF000C3FC6968EA6AAB6A0A4803F0BDFCA96B2A
:10CC00006A6B094803F0B8FCFFF7F6FA00ED00E0A4
:10CC100084170300B8170300EC1703002018030063
:10CC20005418030088180300B0180300F8B521F069
:10CC300021FD00250EE001F01BF921F01BFD25462A
:10CC400014E003F5F06325E0002021F003FC3846F2
:10CC500001F076FC154A13680133136001F0A8FB5C
:10CC6000044605F5F063C31A002BE4DA01F062FC18
:10CC7000074601F09DFB064601F03CFA04463046AB
:10CC800000F0A8F9A04228BF204605F5F0639B1BE1
:10CC9000002BD6DD984228BF18460B28D4D9B0F512
:10CCA000963FD2D94FF49630CFE700BF983300209B
:10CCB00008B50346002108469847FFF795FA00B1EA
:10CCC00001BE00231A4619461846FFF741FF00002F
:10CCD000014B1868704700BF9C33002000B585B039
:10CCE000402303931B4B02934FF0FF330193FF2329
:10CCF00000930023184A1949194801F05FFA50B906
:10CD000001F0F8F888B947F2305021F06BFCB0B967
:10CD100005B05DF804FBFFF767FA00B101BE002320
:10CD20001A4619461846FFF713FFFFF75DFA00B1E0
:10CD300001BE00231A4619461846FFF709FFFFF700
:10CD400053FA00B101BE00231A4619461846FFF7F0
:10CD5000FFFE00BFA00500202DCC0000D41803006A
:10CD60004833002010B584B004462C4B00221A60D2
:10CD70005B602B4B1A605B6000F0D0FA00F00AFA9F
:10CD800000F000FA01F012FC00BB8CB14FF400730C
:10CD90000393244B02934FF0FF3301937F230093BF
:10CDA0002346214A2149224801F008FAC0B2B8B905
:10CDB00021F0A6F8012000F09DF9C0B2D0B9022000
:10CDC00000F098F9C0B2F8B904B010BDFFF70CFA42
:10CDD00000B101BE00231A4619461846FFF7B8FEF7
:10CDE000FFF702FA00B101BE00231A4619461846A1
:10CDF000FFF7AEFEFFF7F8F900B101BE00231A46B7
:10CE000019461846FFF7A4FEFFF7EEF900B101BE80
:10CE100000231A4619461846FFF79AFEF033002001
:10CE200014340020A0060020B1CC0000CC18030070
:10CE3000A033002008B521F015FC01F017FC00B963
:10CE400008BDFFF7D1F900B101BE00231A4619460B
:10CE50001846FFF77DFE000008B5104B1B784BB15C
:10CE6000032000F047F9C0B270B900F00BFF00F0EA
:10CE7000ADFF08BDFFF7B8F900B101BE00231A46A7
:10CE800019461846FFF764FEFFF7AEF900B101BE80
:10CE900000231A4619461846FFF75AFE843500202B
:10CEA000F8B504460D4617461E462022002101F023
:10CEB0009FFD6760A6602561F8BD000038B5044697
:10CEC00001F038FB0546E3693BB1A26972B1D36159
:10CED000E369A2691A600023E361206910B1214669
:10CEE00000F0FCF9284601F02BFB38BD014A5360E5
:10CEF000EEE700BFF033002070B50369C3B105460B
:10CF00000C46002934DB01F015FB06462846FFF7E6
:10CF1000D5FF04B9012401F04BFA20446861154B98
:10CF20001B687BB15A69821A002A0BDB9B69F8E700
:10CF3000FFF75AF900B101BE00231A4619461846F8
:10CF4000FFF706FE5BB1DA69EA61AB61DA69156089
:10CF50001835DD61304601F0F3FA002070BD002382
:10CF6000AB61044B5A68EA61156018355D60F1E702
:10CF70000220F3E7F033002038B501F019FA054636
:10CF80000FE0E269124B5A60E369A2691A6000235C
:10CF9000E36101F0D5FAD4B12069A0B963682046F5
:10CFA000984701F0C7FA0A4B1C68002CF1D063695E
:10CFB000EB1A002B05DBA369002BE2D0E269DA61F2
:10CFC000E2E70024E5E7214600F0F1F8E9E738BDA3
:10CFD000F033002010B5044601F0B5FA30B10B4B28
:10CFE0001B687BB15869001B0AD410BDFFF7FCF821
:10CFF00000B101BE00231A4619461846FFF7A8FDE6
:10D000000020F2E74FF0FF30EFE700BFF0330020E1
:10D0100030B4154B1D6815B12B46002408E00346BB
:10D0200043F8205F104A5360106010E01C461B6AF2
:10D0300043B1017E1A7E914204D3F7D1417E5A7EDC
:10D040009142F3D25CB1236A03621BB120620020DB
:10D0500030BC704700F12003034A5360F6E70562D5
:10D06000014B1860F3E700BFA00E002010B5044686
:10D07000036941699847034628B1E27E12F0080F20
:10D0800005D1002303E0E27E42F00102E276184679
:10D0900010BDC161027643760023C3768376009A81
:10D0A0000261019A4261036043608360C360184675
:10D0B0007047000030B583B00546079C0194069C7C
:10D0C0000094FFF7E6FF034610B1184603B030BDE9
:10D0D0002846FFF79DFF03460028F6D1044A126850
:10D0E000002AF2D02846FFF7C1FF0346EDE700BF54
:10D0F0009C33002038B50546084B1C68002200E030
:10D10000246A44B1237EAB42FAD12046FFF7AEFF3A
:10D1100002460028F4D0104638BD00BFA00E002003
:10D1200038B50546054B1C6834B12946E06901F065
:10D1300085FC08B1246AF7E7204638BDA00E002020
:10D1400070B50D461646FFF7EBFF0446A0B1C37E4F
:10D1500013F0010F12D003681BB1324629469847DD
:10D1600070B901F0E7F9A37E0133A376E37E43F0C3
:10D170000203E37601F0E4F9204670BD0024FBE7EA
:10D180000024F9E7024B00221A605B60704700BF81
:10D19000A00E0020002202604260034643F8082FE0
:10D1A000C3607047C068003018BF0120704770B579
:10D1B000F0B10C460546FFF7F5FFC8B101F0BAF92A
:10D1C00006462378F3B9012323700023E360EB685C
:10D1D0001C600C34EC606868D8B1037B022B14D05F
:10D1E000002400236B60304601F0AAF99CB970BDA1
:10D1F000FEF7FAFF00B101BE00231A461946184691
:10D20000FFF7A6FC01F09CF9F1E700F011FF012403
:10D21000E7E70024E7E7002000F096FFE7E78368F0
:10D2200023B1DA6882601AB100221A70184670477A
:10D2300000F10802C260F7E7F8B5054600F0A4FE69
:10D2400004462B68834201D0DBB9286001F072F9F3
:10D250000746AE68FEB96C604FF0FF31204600F023
:10D260009FFE637B43F008036373384601F068F95F
:10D27000002000F069FF01F05DF9074600236B60B4
:10D28000E7E7FEF7B1FF00B101BE00231A461946D9
:10D290001846FFF75DFCF368AB6053B100233370B1
:10D2A000637B23F008036373384601F049F9304685
:10D2B000F8BD05F10803EB60F0E708B5FFF7BCFF28
:10D2C00043680BB1984708BDFEF78EFF00B101BE61
:10D2D00000231A4619461846FFF73AFC38B50546AA
:10D2E0000C4601F027F9237883B1AA68A24207D13E
:10D2F000D368AB6053B905F10803EB6006E01A464A
:10D30000D368A342FBD1DB68D36023B10023237031
:10D3100001F016F938BD0C32EA60F7E700487047B3
:10D32000A80E00200346002018605B6098605861DA
:10D33000D9601A61704738B5054601F0FBF82C68D2
:10D3400014B163682B602BB101F0FAF824B1A4F199
:10D35000100038BD6D60F7E70020FAE7F8B55379A3
:10D36000072B16D914460E46054602F1100701F0A8
:10D37000E1F8002344F8143F6B681F606C6001F013
:10D38000DFF846B105F108013046FFF710FF002035
:10D3900000E00220F8BD0020FCE7103A0280416066
:10D3A0000020704738B503888B4212D30D460446DF
:10D3B000406800F02BFC034648B10022C2600271B5
:10D3C0004271C28000F11001294401608460184656
:10D3D00038BD0023FBE738B501F108050388AB42EF
:10D3E00010D3FF2D10D80021FFF7DCFF034638B122
:10D3F0005D7102681544056000220282428242612A
:10D40000184638BD0023FBE70023F9E708B5836819
:10D4100023B10146586800F021FC08BD0020FCE75C
:10D42000034660B110B5DC681846FFF7EFFF2346EE
:10D43000024610B9002CF6D10022104610BD002281
:10D4400010467047002303E0C28813449BB2C068B3
:10D450000028F9D1184670472DE9F04700284DD033
:10D460000F4691468246D0F80880054600E01D46EA
:10D47000EB68002BFBD14E46AB6805F110041B880E
:10D480001C442868EB881844241AA4B264B14C45A3
:10D4900000DD4C462246394601F082FAEB882344EF
:10D4A000EB802744A9EB0406002E16DD0021404640
:10D4B000FFF778FF044680B1B8F80020B242A8BF59
:10D4C000324692B2C2803946006801F069FAE388B8
:10D4D0001F44F61AEC602546E6E79AF80530072B5C
:10D4E00007D9A9EB0609BAF8103013FA89F9AAF896
:10D4F000109006B101263046BDE8F0870226FAE713
:10D5000070B110B402E0C91A20463CB1C468C388A7
:10D510008B4202DCF7D1002CF5D1118010BC704792
:10D520007047F0B583B00746084611461E460DF118
:10D530000602FFF7E5FF0546BEB1D5B1EC88BDF8A0
:10D540000630E41AB442A8BF3446A4B22968224681
:10D5500019443846FFF780FF034638B9341BA6B29A
:10D56000ED680023ADF80630E6E70023184603B067
:10D57000F0BD0223FAE7F8B504461F46164612B37B
:10D58000002906DD0CB3E3888B4202DCC91AE4688B
:10D59000F6E7002E10DD7CB1E5886D1AB542A8BF14
:10D5A000354623682A461944384601F0F9F9761BB6
:10D5B0002F44E4680021ECE7002E01DC002003E0AA
:10D5C0004FF0FF3000E01046F8BD4FF0FF30FBE7B2
:10D5D00000284ED0F8B5044600291CDB03460A4655
:10D5E00005E0801AD880186802441A6000224BB106
:10D5F000002A07DDD8889042F3DC121A0020D88078
:10D60000DB68F4E76379072B04D9521A218A11FAEF
:10D6100082F22282F8BD4F42002200E02846C388F1
:10D620001A44C568002DF9D1BB4209DBBFB2DB1B30
:10D63000C3806379072BEDD9238ADF1B2782E9E7B3
:10D640008A180BD46379072B00D92282002CE1D0F1
:10D65000E388934204DAD21AE468F7E70022F1E79C
:10D66000E280E0680028D5D0FFF7DAFE0023E3600F
:10D67000D0E770472DE9F04182B01E1E2DDD174620
:10D680000DF10602FFF73CFF04464FF0000809E0E9
:10D6900045441FFA85F8B04527D0E4680023ADF86B
:10D6A0000630BCB1F4B1A6EB0802E388BDF8060071
:10D6B0001B1A9A42A8BF1A4695B2002DE8D02368DB
:10D6C0002A4607EB0801184401F046F903460028F2
:10D6D000DED003E06FF0004300E00023184602B004
:10D6E000BDE8F0816FF00043F8E70023F6E7F8B5F6
:10D6F00004460E4619E000201BE00021A068FFF759
:10D7000051FE0546002D33D06379072B36D8AA6821
:10D7100005F11003128813442968EA880A449B1A09
:10D7200011FA83F32B60EC602C4661790729E2D96A
:10D7300088B2234653F8102B0344D31A9BB29E425F
:10D7400000DA3346D21A226098B2E2880244E280BC
:10D75000072902D9228A10442082F61A0CD0072900
:10D76000CBD90839C9B2A068FFF735FE0546C9E72D
:10D770002046FFF755FE2C462046F8BDEB887BB9C6
:10D7800005F11007627904F11001384601F008F93B
:10D7900063796B7163791F442F6000236371B6E76F
:10D7A000FEF722FD00B101BE00231A4619461846B5
:10D7B000FFF7CEF92DE9F04383B08146884617463E
:10D7C0001E460DF10602FFF79BFE054648B94FF0D5
:10D7D000FF362DE066B3EB68ABB10022ADF8062052
:10D7E0001D46EC88BDF80630E41AB442A8BF3446A2
:10D7F000002CEFDD286822463946184401F0D0F8A5
:10D800002744361BE6E7B2B239462846FFF724FE26
:10D8100068B999F80520072A0ED94644B9F810804E
:10D820004645B8BF4646A9F81060064600E00646E1
:10D83000304603B0BDE8F0830646F9E7024600E053
:10D840001A46D368002BFBD1D1604379072B14D93A
:10D850004B79072B0DD80B4679B110B4DA88048ABE
:10D8600022440282DB68002BF8D100234B7110BCEC
:10D8700070470B8A028A1344038200234B7170475E
:10D88000F8B587683B888B4227D3044600E01C46E6
:10D89000E368002BFBD10D460646A26804F1100395
:10D8A000128813442268E1880A449B1A9BB29D4265
:10D8B0000BD82068E38818442B44E3807379072B46
:10D8C00002D9318A0D443582F8BD00213846FFF770
:10D8D00069FD20B1E0600446EBE70020F4E700209A
:10D8E000F2E72DE9F04104468068E2888A4279D265
:10D8F0000D4604F1100306883344216811445B1A75
:10D9000012FA83F32946AB4212DBE36883B1AD1A06
:10D91000ADB227461C46BB6807F110081B88984427
:10D920003B68FA881344A8EB03081FFA88F82DE037
:10D930006379F61AB14250DC0021FFF733FD074648
:10D9400000284AD06379072BE5D9C3886BB900F169
:10D950001006627904F11001304601F021F8637974
:10D960007B7163791E443E60D5E7FEF73DFC00B154
:10D9700001BE00231A4619461846FFF7E9F8E66883
:10D980002046FFF743FD34460DB304B3E6882B462B
:10D990004545A8BF43469E42A8BF1E463868FB883F
:10D9A00032462168184400F0FBFFB2B2AD1AADB2A6
:10D9B000FB881344FB80E3889B1A9BB2E380A8EBAF
:10D9C0000608002BDBD023681E442660DCE70DB977
:10D9D000FC6008E03846FFF719FD2046FFF720FD00
:10D9E000002700E027463846BDE8F08110B50C4618
:10D9F000FFF77DFE034618B12146FFF772FF03468D
:10DA0000184610BDF8B50646C788D7B9C46805E002
:10DA1000E568F5602046FFF7F9FC2C4614B1E38871
:10DA2000002BF5D06CB16379072B00D99FB220464B
:10DA300050F8103B0744DF1BBFB273799AB2BA4269
:10DA400001D93046F8BD6371727906F1100100F01A
:10DA5000A7FF3046FFF7DAFC2646F2E72DE9F84348
:10DA6000814600284ED009B1FFF7E8FE4D4606E09A
:10DA7000002308E0344610E02546002C42D06A79A5
:10DA8000072AF5D993B22E4656F8101B3344CB1A09
:10DA90009BB23BB1072AEDD9B418EA88204600F0C2
:10DAA0008CFF2C602B68B5F806809844EC68AB6856
:10DAB0001F883744A7EB0807BFB2002FDCD0002C2B
:10DAC000DAD0E688BE4228BF3E463246216840464C
:10DAD00000F066FFEB883344EB80B044BF1BBFB25D
:10DAE000236833442360E3889E1BE680E388002B91
:10DAF000E3D1E368EB602046FFF788FCEC68002C7C
:10DB0000F4D1DAE74846BDE8F8830000002831D0B8
:10DB100030B40446002A2FD0BBB113B113F0030F69
:10DB20002CD12260E18021819DF80C00A072A1809F
:10DB3000E3600298A061636199B112F0030F02D013
:10DB400022F003020432012007E00029E5D003207F
:10DB50000EE09D181D6001302B468142F9DC002249
:10DB60001A6000202061064B5A68146010345C6013
:10DB700030BC7047032070470320F9E70420F7E723
:10DB8000F833002010B582B000240194049C009466
:10DB9000FFF7BCFF02B010BD0146B0B1006810F045
:10DBA000030F02D020F0030004308B88CB800B8160
:10DBB000CA684A6104E011181160013B9BB20A4631
:10DBC000012BF8D80020106070470320704710B474
:10DBD000036813F0030F02D023F003030433C46877
:10DBE000828803FB02428C420BD891420CD2091B63
:10DBF000B1FBF3F203FB121109B9012002E000208E
:10DC000000E0002010BC70470020FBE738B5A0B151
:10DC1000044600F08FFCE38853B165692A686261AD
:10DC2000013B9BB2E3802289934202D2238100E030
:10DC3000002500F085FC284638BD0025FBE738B5F7
:10DC400004460D4600F076FC63692B606561E3884D
:10DC50000133E38000F074FC002038BD68B108B5E2
:10DC600069B1837A13F0010F04D0C36913B1026A5A
:10DC7000984708BDFFF7E3FFFBE703207047032049
:10DC8000F7E70000024B00221A605B60704700BF9C
:10DC9000F8330020024B186808B1586808387047FC
:10DCA0007C010020094B19680B4623B11A88824277
:10DCB00001D29B68F9E70BB11846704719B1034BC5
:10DCC0005B68083BF8E70B46F6E700BF7C010020E5
:10DCD00030B4114B1D682B46002433B101881A88DB
:10DCE000914202D31C469B68F7E75CB1A36883604E
:10DCF0001BB1A060002030BC704700F10803064A49
:10DD00005360F6E7856015B1034B1860F2E700F148
:10DD10000803014A5360F7E77C01002030B583B067
:10DD20001446079D0195069D009504F079FA28B9DF
:10DD30002046FFF7CDFF70B903B030BDFEF754FAAF
:10DD400000B101BE00200090094B1D680346024649
:10DD50000146A847ECE7FEF747FA00B101BE0020F4
:10DD60000090034B1C68034602460146A047E3E7C8
:10DD700098020020024B00221A605B60704700BFCF
:10DD80007C01002010B50C4630B9FFF783FF30B19D
:10DD90002146FFF707FB10BDFFF784FFF7E70020E0
:10DDA000F9E710B50C4630B9FFF774FF58B1E1B28E
:10DDB000FFF711FB10BD01F108039BB2034498B2B9
:10DDC000FFF770FFF2E70020F4E7000000B583B032
:10DDD000FFF7D0FF064B0193702300931623054AEB
:10DDE00005490648FFF79AFF03B05DF804FB00BF42
:10DDF000DC1803005818002064180020B80E00201A
:10DE000008B5054B186800B908BD4FF0FF3103484D
:10DE100000F0C6FCF8E700BF9C330020003400206F
:10DE200008B5044B186800B908BD034800F058FC59
:10DE3000FAE700BF9C330020003400200023036079
:10DE400043608360C36003611846704710B50446A1
:10DE5000FFF7D6FF034608B1184610BD034B1A68FA
:10DE600022611C60FFF7DCFF0346F5E78018002005
:10DE700010B5FFF7C5FF10B91D4B1C6812E0FEF787
:10DE8000B3F900B101BE00231A4619461846FEF741
:10DE90005FFE00F08DFA236862681344C31A002BFA
:10DEA0000DDC2469ACB1A368002BF2D0E1682046F8
:10DEB00098470028EDD100F07BFA2060F1E7FEF7EB
:10DEC00093F900B101BE00231A4619461846FEF721
:10DED0003FFEFFF7A5FF00B910BDFEF785F900B1C1
:10DEE00001BE00231A4619461846FEF731FE00BF50
:10DEF0008018002008B5024800F0E8FB08BD00BF0C
:10DF000000340020037B012B01D00220704710B5A4
:10DF1000044600F00FFB0F4B1B682BB1E17ADA7A55
:10DF2000914201D35B6CF8E753B19A6CA2646364CD
:10DF30009A6C146044349C6400F002FB002010BD15
:10DF400000236364034B5A68A264146044345C6029
:10DF5000F2E700BF8401002010B4C36B0133C36338
:10DF6000064B1868064B1C6806490B68C21AA36B5F
:10DF70001344A363086010BC704700BF2034002026
:10DF80000C34002010340020014B1868704700BF8B
:10DF90000C340020014B1860704700BF0C34002087
:10DFA00038B504460D46436CD3B1826C9A64A36CB9
:10DFB000626C1A600223237300F0FAF9284460634C
:10DFC000B5F1FF3F10D0184B1B68D3B15A7B12F04C
:10DFD000010F16D15A6B121A002A12DC5B6CF4E79F
:10DFE000826C124B5A60E2E7637B43F00103637378
:10DFF000002363640C4B5A68A264146044345C6070
:10E0000007E043B19A6CA26463649A6C1460443470
:10E010009C64002038BD00236364034B5A68A264EB
:10E02000146044345C60F4E78C010020840100201B
:10E0300008B5037B022B08D1C3691BB31A6872B100
:10E04000824217D1D26C1A6019E0FEF7CDF800B108
:10E0500001BE00231A4619461846FEF779FDFEF761
:10E06000C3F800B101BE00231A4619461846FEF750
:10E070006FFD1A46D36C8342FBD1DB6CD364002363
:10E08000C364C3610123037300234363437B23F011
:10E0900001034373436C43B1826C9A64836C426C9A
:10E0A0001A60FFF72FFF002008BD826C014B5A60F9
:10E0B000F4E700BF8C01002070B500F079F9054647
:10E0C00000F038FA06460A4B186860B1437B13F03B
:10E0D000010F08D1446C436BEB1A002B03DBFFF7F5
:10E0E000A7FF2046F1E7304600F02AFA70BD00BFD6
:10E0F0008C01002010B5044600F025FA50B10E4BFB
:10E100001B689BB15A7B12F0010F12D1586B001B98
:10E110000AD410BDFEF768F800B101BE00231A460C
:10E1200019461846FEF714FD0020F2E74FF0FF30C5
:10E13000EFE74FF0FF30ECE78C010020014B18684F
:10E14000704700BF8401002038B5044600F0F2F9A2
:10E15000054634B1204600F0E3F9284600F0F0F916
:10E1600038BDFFF7EBFF0446F4E7000008B5037B7A
:10E17000012B00D008BD436C3BB1826C9A64836C68
:10E18000426C1A60FFF7BEFEF4E7826C014B5A60E6
:10E19000F5E700BF84010020002303E0034A40F8B4
:10E1A000232001338B42F9DB704700BFEFBEADDEA9
:10E1B0004368008903EB8000704700002DE9F041BF
:10E1C00004460E4690461D46BDF82470502200219C
:10E1D00000F00EFCC4F81480A56100F0ABF92E4BE2
:10E1E0001D786A1C1A7000F0ABF9A5729DF8183002
:10E1F000E3720123237326610023636304F1200685
:10E200003046FFF71BFE0546002838D1079BB3F1C7
:10E21000FF3F05D063623046FFF718FE054670BB2E
:10E2200039460898FFF7B8FF089B636027812046AE
:10E23000FFF7BEFF3A460146204600F089F920600C
:10E24000164B1B687BB1E17ADA7A914201D01B6CE4
:10E25000F8E7FDF7C9FF00B101BE00231A461946D1
:10E260001846FEF775FC23640C4B5A68146004F1E1
:10E2700040025A602046FFF745FE054610B1284689
:10E28000BDE8F081FEF724FD08B90546F7E7002058
:10E29000FFF75AFFF3E700BF1C34002014340020BE
:10E2A00038B50446C37A0B70837A4B70037B8B704E
:10E2B0004368028903EB8202934205D21D680F482E
:10E2C000854201D10433F7E7D31AC3F38F038B8060
:10E2D0002389CB80E36B8B60A36BCB60236A0B61DC
:10E2E000236A626A13444B610846002300F8183F12
:10E2F0001F22216900F0B0FB38BD00BFEFBEADDECC
:10E300002DE93008C30900F07F00D1E9004514EB86
:10E31000030B45F1000CC2E900BC8B6841F6846137
:10E3200001FB00309060084B98420ADD1BF10104AC
:10E330004CF10005C2E90045A0F57420A0F510706D
:10E340009060BDE8300870473F420F0070B5041E72
:10E350000DDB00F0EFF80546134A1368E018106073
:10E3600090EA030F0DD4284600F0EAF870BDFDF7DF
:10E370003BFF00B101BE00231A4619461846FEF7BE
:10E38000E7FB0A4E314651F8084B041B0A4620466B
:10E39000FFF7B6FF06F118010A462046FFF7B0FF67
:10E3A000014B1B683360DEE7203400208818002012
:10E3B000014B1868704700BF2034002010B5041EC0
:10E3C00009DB002C06DDFEF783FC70B90C4A1368EC
:10E3D0001C44146010BDFDF707FF00B101BE00230F
:10E3E0001A4619461846FEF7B3FB2046FFF7AEFF64
:10E3F000FEF7C2FDFFF760FE0020FFF7A5FEE9E78C
:10E400002034002000B9704738B5044600F092F877
:10E410000546FFF7B9FD2146FFF7C2FD284600F08B
:10E420008FF80020FFF790FE38BD000070B505465C
:10E430000C4600F07FF8064645B1FFF7B9FF0849E2
:10E4400051F8183B2A46C01AFFF75AFF14B1044B83
:10E45000986A2060304600F073F8002070BD00BF5D
:10E4600088180020F0B585B0064600F063F807462E
:10E470000A4D6C4605F108030FCB84E80F002D68A8
:10E48000FFF796FF451B384600F05AF83246214602
:10E490002846FFF735FF05B0F0BD00BF8818002003
:10E4A0002DE9F04884B06846FFF7DCFFDDE90001A4
:10E4B0004C01420144EAD063121A63EB01035C028F
:10E4C00044EAD25455022E1844EB0107BD0145EA37
:10E4D0009665B401A21B65EB0703841841EB0305A5
:10E4E000029BE01845EBE37104B0BDE8F08838B555
:10E4F00004460D464FF47A720023C001610E22F0EB
:10E5000089FD012908BF002802D22860002038BDFB
:10E510000220FCE7FEE708B50120FFF74FFF08BD2A
:10E5200008B5FFF719FD024B4FF080525A6008BD45
:10E5300000ED00E0EFF3108000F0010072B67047CC
:10E5400000B962B67047EFF3108000F00100704729
:10E5500070B506460D46A1F14004092303E00022F0
:10E5600044F8232001330C2BF9DD204600F092F90A
:10E570004FF0807345F8043C736945F8083CB36973
:10E5800045F8203C024B45F80C3C204670BD00BFCE
:10E5900015E5000008B5044A536943F010035361C0
:10E5A000FEF79CFB08BD00BF00ED00E0F8B5EFF3FF
:10E5B00005840CB9002409E007202EE004F1604531
:10E5C00005F56145FF2685F800630134EF2CF5D988
:10E5D0006FF00D0407E065B2124EB6681035124FA9
:10E5E00046F825700134252CF5DD0E4CA5680F4E3C
:10E5F000EE62A5680E4EAE63A5680E4EEE63E02592
:10E6000084F822502025E577EFF3148414F0010FED
:10E6100004D0DFF824C000DF0020F8BDFFF7BAFF08
:10E620000020FAE700ED00E017E900009BE8000099
:10E63000E1E800000BE9000095E5000010B5FFF7E8
:10E640007DFD0446FFF7A6FC2368203383F3098889
:10E65000062180201FF056FF034B01221A6020463E
:10E66000FFF75EFFA06910BD9C33002010B5144871
:10E670000068043800F004F9EFF30584D4B9EFF32F
:10E68000148404F00304032C08D8DFE804F0151503
:10E69000020C0C4C246814F0010F0FD1DFF828C0D5
:10E6A00000DF002010BD074C246814F0010FF5D1E5
:10E6B0000820F7E70720F5E70820F3E70820F1E74F
:10E6C00048330020B81800203DE60000034628B17A
:10E6D00000205871D88098601860704703207047F8
:10E6E000F8B52E4B1B68002B52D0002852D00446A0
:10E6F000FFF74AFC0546E388002B4DD0A268824212
:10E7000001D0052045E0012B03D0013BE380002030
:10E710003FE0FFF70FFF0746E388013BE380EA7A1B
:10E7200063799A421ED1266846B1F369FBB130463F
:10E73000FFF77EFC0123E380F37A6371A66016B1D4
:10E74000B37B0133B373AB7B013BAB73FFF7F6FCD9
:10E750000446854215D001253846FFF7F1FE95B9EC
:10E76000002016E0EB722846FFF700FDDBE7FDF71F
:10E770003BFD00B101BE00231A4619461846FEF7BC
:10E78000E7F90025E8E72046FFF7DEFC002000E07F
:10E790000920F8BD0320FCE70520FAE79C330020A0
:10E7A000364B1B68002B65D0002865D02DE9F04161
:10E7B0000F460446FFF7BEFE8046FFF7E5FB054621
:10E7C000E3889BB1A26882421ED027B3D17AC37A74
:10E7D000994225D8216869B30B4600262BB3E87A05
:10E7E000DA7A904221D31E46DB6CF7E7A060C37A49
:10E7F0006371837B013383730123E3804046FFF71A
:10E800009FFE0020BDE8F0810133E3804046FFF722
:10E8100097FE0020F6E74046FFF792FE0620F1E75C
:10E82000D372A068FFF7A2FCD4E71EB1F36CEB64CF
:10E83000F56401E0E9642560EC616B7B43F004035F
:10E840006B7339462846FFF7ABFB4046FFF778FE6F
:10E850000020FFF779FCFFF76DFE6B7B23F00403CC
:10E860006B73FFF76DFEA368AB4201D00620C9E7CA
:10E870000020C7E709207047032070479C33002021
:10E8800080F309882B480078023080F31488BFF3A6
:10E890006F8F704780E8F00F7047EFF30980816950
:10E8A00011F8021C51B990E80F1010B5E047BDE80F
:10E8B0001040EFF3098C8CE80700704710B51E4A32
:10E8C0001268914209D81D4C54F8214090E80F106D
:10E8D000A047EFF3098C8CE80F00BDE810407047AB
:10E8E000174B1A68174B1968914208BF7047EFF32E
:10E8F000098C2CE9F00FC1F800C01A60D2F800C0F2
:10E90000BCE8F00F8CF30988704710B5FFF703FEE1
:10E91000BDE8104070471EF0040F0CBFEFF30883F2
:10E92000EFF309832DE9F84F6846FEF733F9BDE8A8
:10E93000F84F7047B818002000000000FCFFFFFFF0
:10E94000840100200C34002008B5024800F09AF839
:10E95000400808BD2434002070B44FF0000522F0B8
:10E96000030605E043594C59A34204D105F10405BF
:10E97000B542F7D10DE01BBA24BA1B1B8CBF012393
:10E980004FF0FF3309E0435D4C5D1B1B05D105F1E2
:10E9900001059542F7D14FF00003184670BC70474F
:10E9A00001E08B588350043AFBD502F1040201E0E8
:10E9B0008B5C8354013AFBD5704710B481420CD86C
:10E9C0001144831810E00A781A700133013122468D
:10E9D000541E002AF7D110BC70470346F8E711F81F
:10E9E000012D03F8012D2246541E002AF7D1F2E72B
:10E9F00030B40546C9B241EA012141EA0141AB18F0
:10EA000003242340D31A0BD401E0013AA9549A42BB
:10EA1000FBD100E0A950043AFCD5043200E0A9542F
:10EA2000013AFCD530BC7047034B43F20E321A80DA
:10EA30005880000C988070472434002030B402467F
:10EA4000551C13784C1C0878181A03D12A46214605
:10EA5000002BF5D130BC7047F8B507460D4614467B
:10EA600000F03CF83844621E44B16E1C2B78411C07
:10EA70000370144623B135460846F4E700230370BB
:10EA80003846F8BD2DE9F0080146B0F800B04FF067
:10EA9000000C4688350C34041BEB04024CEB0503D8
:10EAA00000248588161943EB05070B4C052000FB55
:10EAB00006F004FB0700A6FB0423034412F10B0439
:10EAC00043F100050C80200C40EA054048808D8011
:10EAD000BDE8F008704700BF6DE6ECDE034600E0DD
:10EAE00001331A78002AFBD1181A704708B50023A1
:10EAF0001A4601460248006804F0C0F808BD00BF8D
:10EB0000E043002030B583B000244FF0FF3500E033
:10EB10000134012C10DC00231A466946204604F01B
:10EB2000ADF80028F4DB30B9204604F0FDFA0028E7
:10EB3000EED12546ECE72546002D03DB284602F002
:10EB40000EF80546284603B030BD000070B582B00F
:10EB50000546FFF7D7FF00281BDB01A9C0B201F073
:10EB600049FFD0B920220021019801F0C1FF0446DD
:10EB7000A8B902220B4928461DF05DFE0646002278
:10EB8000002328461DF0D6FD50EA060302D00224D9
:10EB900000E00224204602B070BD0324FAE70324FB
:10EBA000F8E700BFE418030008B5084B1B781BB159
:10EBB000074805F0F9F908BDFDF716FB00B101BEE5
:10EBC00000231A4619461846FDF7C2FF8435002077
:10EBD0009401002010B582B00C46416849B9027812
:10EBE0004378418800910849204620F037FB02B065
:10EBF00010BD027843784088019100900349204677
:10EC000020F02CFBF3E700BF3019030020190300AC
:10EC100018B108B5FEF704FC08BD704720B108B56F
:10EC20001DF0C0FC002008BD0320704728B108B5C6
:10EC300000221DF079FC002008BD0320704738B584
:10EC400060B104468568288A884209D32846FEF7C1
:10EC5000B1FD034638B92A8A626002E0032300E06E
:10EC60000323184638BD0223FBE728B108B5018A03
:10EC70004942FEF7ADFC08BD704708B5FEF7A8FC99
:10EC800008BD38B588B104464179083989B20020F9
:10EC9000FFF787F8054650B16279083A04F1180188
:10ECA0001830FFF77DFE284638BD0025FBE700251C
:10ECB000F9E738B50C464979083989B2FFF771F898
:10ECC000054630B16279083A04F118011830FFF7AF
:10ECD00067FE284638BD000070B582B00C46154668
:10ECE0000191136B08469847064680B1019B63B1BA
:10ECF0002346094A314601A803F0AAFA50B1EA6A4C
:10ED000090470028F2D0012002E0002000E001201E
:10ED100002B070BD0220FBE7B3EC0000C0B110B53B
:10ED20008CB004460E4B0360606003AB8360C0F898
:10ED30000CD00C4B036104F11400FEF7FCFA014601
:10ED400048B1204605F0A4FA03460028F3D003E0BA
:10ED5000032318467047002318460CB010BD00BFAF
:10ED60003C190300D9EC000008B58068FFF7D6FF16
:10ED700008BD0000014B1860704700BF2C34002014
:10ED800038B50C4600F11405FEF7C8FA22460146D4
:10ED90002846FEF7E3FA054608B9284638BD20465E
:10EDA000FEF73EFBF9E7000008B5C16202630246C8
:10EDB00002491430FEF7B6FA08BD00BF69ED000045
:10EDC00008B5094B1B7823B1FEF7A8FAFFF7D2FF6D
:10EDD00008BDFDF709FA00B101BE00231A46194625
:10EDE0001846FDF7B5FE00BF8435002008B5008B3E
:10EDF0000FF0B2FD034608B1C31E9BB2184608BD12
:10EE000038B50446FEF78AFA224601460548FEF761
:10EE1000A5FA054608B9284638BD2046FEF700FB8E
:10EE2000F9E700BF6434002008B50D48FEF783FA07
:10EE30000346A0B15A79083A012A06D91A46094967
:10EE40000988188B13F0F4FBEFE7FDF7CDF900B15B
:10EE500001BE00231A4619461846FDF779FE08BD83
:10EE6000643400207C34002070B51378012B36D137
:10EE70000646154654686379A3F10802012A0AD9A7
:10EE800000236B60268321461B48FFF779FF03466A
:10EE900018BB184670BD072B01D99BB200E00023B8
:10EEA000214651F8102B0B44D31A9BB2012B05D9E4
:10EEB00000236B60637902336371E3E70221208AE8
:10EEC000FEF76FFF0446A0B169680B8A0022FEF7C7
:10EED00028FB0028D6D01123DBE70E23D9E7FDF766
:10EEE00083F900B101BE00231A4619461846FDF702
:10EEF0002FFE1123CDE700BF3034002008B50C48A9
:10EF000014F0DCFC034608B1184608BD084814F0AC
:10EF1000B1FC03460028F7D1002206490648FEF757
:10EF200001FA064A06490748FFF73EFF0346EBE7AA
:10EF30008019030029EE000064340020EDED00008C
:10EF400001EE00003034002010B582B00F4B1B786A
:10EF500023B1FFF7D3FF58B902B010BDFDF744F954
:10EF600000B101BE00231A4619461846FDF7F0FD10
:10EF7000FDF73AF900B101BE00200090044B1C6877
:10EF8000034602460146A047E6E700BF843500205D
:10EF90009802002010B584B0002203A9112001F0CE
:10EFA00043FD90B9039B092B1CD8314A03A91120BA
:10EFB00001F03AFD2F48039B437300F0A1FC034688
:10EFC000002833D00023039327E0FDF70DF900B1AB
:10EFD00001BE00200090284B1C68034602460146F3
:10EFE000A047DFE7FDF700F900B101BE0020009067
:10EFF000214B1C68034602460146A047D5E71C4C3E
:10F000005300991888000246224492680021204447
:10F0100001F06EFD039B01330393164B5B7B039A58
:10F020009342ECDC134800F06BFC03462BB911480B
:10F0300000F092FC70B904B010BDFDF7D5F800B136
:10F0400001BE002000900C4B1C680346024601469E
:10F05000A047ECE7FDF7C8F800B101BE0020009022
:10F06000054B1C68034602460146A047E3E700BF84
:10F07000BC180020D00100209802002008B5094BE0
:10F080001B7823B100F040F9FFF784FF08BDFDF7BE
:10F09000ABF800B101BE00231A4619461846FDF729
:10F0A00057FD00BF84350020704738B50D46144623
:10F0B0001168FFF7C3FC40B945B1616819B1284632
:10F0C000FFF7BCFC60B10023A36038BD63680BB1DF
:10F0D0001B7813B90123A360F7E70023A360F4E7CB
:10F0E0000123A360F1E738B504460D4622B110466E
:10F0F0002146FFF7A3FC18B92946204600F0B2FAD2
:10F1000038BD0000084B19680B46002201E01A4682
:10F110001B68002BFBD11AB11368036010607047A5
:10F120000160014B1860704780340020014B18606B
:10F13000704700BF8434002010B500F00FF90123A0
:10F140000E4A13700E4A13700E4B1C6800E02468C0
:10F1500064B163681B6800220B4920469847236806
:10F16000002BF4D0002000F0B3FAF0E7044B1C7041
:10F1700000F0FEF8204600F0ABFA10BD2819002080
:10F180002919002080340020E7F0000008B5044B66
:10F190001B780BB1002008BDFFF7CEFFFBE700BFD7
:10F1A0002819002070B584B005460E4600F0D6F848
:10F1B000134B1B68FBB10195029600230393114B7F
:10F1C0001C6806E063681B6801AA0F49204698473F
:10F1D0002468002CF6D1039B012B0ED0084B186835
:10F1E00043689B68324629469847044600F0C0F8B9
:10F1F000204604B070BD0A24F8E70024F6E700BFFB
:10F200008434002080340020ABF0000008B5FFF704
:10F21000C9FF08BD70B500F0A1F8114B1E68E6B13A
:10F2200073685B680BB1304698470E4B1C6800252D
:10F2300000E0246844B100220B49204600F0FEF9AA
:10F24000002DF6D10546F4E77368DB680BB1304654
:10F25000984700F08DF8284670BD0A25F9E700BFF1
:10F2600084340020883400200DF200000023024A7C
:10F270001370024A13607047281900208034002060
:10F2800030B583B00C4611461A46037A43B1C568BF
:10F2900065B1C3690093069B2046A84703B030BD03
:10F2A000C5682DB1069B2046A847F7E70020F5E783
:10F2B0000020F3E738B50C4611461A46037A2BB105
:10F2C000056945B1C3692046A84738BD036923B124
:10F2D00020469847F9E70C20F7E70C20F5E708B53A
:10F2E000037A23B1436933B1C069984702E04369A7
:10F2F0001BB1984708BD0020FCE70020FAE708B5DD
:10F30000FFF744FF08BD000010B582B00F48FFF7BB
:10F31000DDF90F4B00221A60FFF7A8FF00F05EFC3A
:10F3200030B9FDF7FBFF0B49FDF741FF02B010BDFF
:10F33000FCF75AFF00B101BE00200090064B1C688C
:10F34000034602460146A047EBE700BF2C19002008
:10F3500088340020080200209802002008B54FF0F1
:10F36000FF310248FFF71CFA08BD00BF2C1900202E
:10F3700008B50248FFF7B4F908BD00BF2C190020FA
:10F3800010B50446FFF7EAFF034B1A6822601C60C1
:10F39000FFF7EEFF002010BD8834002038B5054689
:10F3A000054B1C6834B161682846FFF747FB08B17C
:10F3B0002468F7E7204638BD8834002070B582B055
:10F3C0000E46154601AA09491FF08CFF002308E0EC
:10F3D0005C1C45F8230001AA044900201FF082FFAD
:10F3E00023460028F4D1336002B070BDA019030099
:10F3F00010B51446FFF7E2FF18B92068FFF7CEFFFB
:10F4000010BD0020FCE7002800F092802DE9F048B4
:10F4100082B005461E4617460C4602390C2900F2FA
:10F420008980DFE801F00707070773878787074AA6
:10F430004A4A4A00002201A91FF064FF019B1B7881
:10F44000002B7BD10A2C09D0022C13D0032C1DD009
:10F45000042C27D0C7E9000100206CE0002908BF78
:10F4600002286DD250EA010314BF012300233B7030
:10F47000002060E010F1800241F10003002B08BF82
:10F48000B2F5807F5ED23870002054E010F5004263
:10F4900041F10003002B08BFB2F5803F54D2388001
:10F4A000002048E010F1004241F10003012B08BFA9
:10F4B000002A4BD2386000203DE0002201A91FF055
:10F4C00027FF019B1B78002B42D10B2C07D00C2C63
:10F4D0000DD00D2C13D0C7E9000100202BE000292E
:10F4E00008BFB0F5807F35D23870002023E00029B6
:10F4F00008BFB0F5803F2FD2388000201BE00129E3
:10F5000008BF00282AD23860002014E0FFF7E6FA8E
:10F51000002110F1010B41F1000CF3175E4573EB74
:10F520000C031DDB294638461FF0B2FE002002E026
:10F5300003207047032002B0BDE8F0880320FAE7FB
:10F540000320F8E70320F6E70320F4E70320F2E7BF
:10F550000320F0E70320EEE70320ECE70320EAE7CF
:10F560000320E8E706284BD070B582B016460C465B
:10F57000851E0C2D46D8DFE805F00707070745452F
:10F5800045450729292929000A2808D0022812D030
:10F59000032814D0042816D0D1E9000101E0207816
:10F5A0000021CDE90001184A1946304620F09DF9A6
:10F5B000304602B070BD94F90000C117F1E7B4F90C
:10F5C0000000C117EDE70868C117EAE70B2806D06D
:10F5D0000C280FD00D2810D0D1E9000101E02078CF
:10F5E0000021CDE90001094A1946304620F07DF995
:10F5F0003046DEE720880021F3E708680021F0E7C5
:10F60000084670470020D4E7A4190300AC19030092
:10F6100038B54D1E084C84FB05C4A4EBE5740134D9
:10F62000B3EB840F05DB144601231CF049FE204692
:10F6300038BD0020FCE700BF5655555510B50C46A7
:10F640001146037A2BB1836943B1C26920469847BA
:10F6500003E0836923B12046984710BD0020FCE7F2
:10F660000020FAE730B58BB004460D46FFF776FE72
:10F6700001AA09A92046FFF7BBFE58B12B4602AAF2
:10F6800009990139FFF716FE0446FFF771FE20467F
:10F690000BB030BD0324F8E770B58CB004460D46BE
:10F6A0001646FFF75BFE03AA0BA92046FFF7A0FE54
:10F6B00060B100962B4604AA0B990139FFF7E0FDD3
:10F6C0000446FFF755FE20460CB070BD0024F8E755
:10F6D00030B58BB00446FFF741FE6CB101AA09A911
:10F6E0002046FFF785FEC0B1FFF7F9FD0546FFF79D
:10F6F0003FFE28460BB030BD094B1C68002500E0DA
:10F700002468002CF3D06369002BF9D02046FFF762
:10F71000E6FD002DF4D10546F2E70325E7E700BF3B
:10F720008834002000B583B0009101926B46064AF0
:10F73000002108301EF0A1FB034618B9184603B09B
:10F740005DF804FB0223F9E74DF7000030B5DBB0AC
:10F750000D468489B4F5B07F01D340F25F1423468F
:10F7600002AA8168006801F09DF910B100205BB029
:10F7700030BD02A8002303556A4601A900F018F91C
:10F780000028F3D12B686A68009901989847EDE743
:10F79000F8B504460D4616461F4683890A46816819
:10F7A000006801F07FF9034608B11846F8BDA38947
:10F7B0000022EA543A463146284600F0F9F803465A
:10F7C000F3E7F0B5ADF53D7D04460E4617461EF055
:10F7D00042F900285DD100230893099308A9204627
:10F7E0001EF0F6FA002851D1089AA3699A424DD129
:10F7F00002AB03AA64A908A8FFF7CAFF0028EDD14D
:10F80000029B002BEAD004AD08AB0FCB85E80F00BC
:10F8100004A920461EF0DCFA78B96B4601AA0CA9AF
:10F8200004A8FFF7B5FF0028F2D101990398FFF76C
:10F8300005F903460028EBD100E00123002BCDD0D1
:10F840002EB13A4602990398B0470028C6D1BDF8B8
:10F850002C3064AA0A99089801F024F90028BDD137
:10F8600004AABDF82C1020461EF010F90028B5D1CE
:10F87000BDF82C3064AA0699049801F026F90028F6
:10F88000ACD104A920461EF07FF9A7E720461EF060
:10F89000B9FA0DF53D7DF0BD2DE9F04184B0054686
:10F8A00088461746002405E0002211462846FFF747
:10F8B00088FF0134092C0DDC6A46B9B228461EF0D7
:10F8C000E5F8064610F1040F04D1AB79002BEBD11B
:10F8D00001240EE066B93B4642460299009801F0C9
:10F8E000F4F8044648B9694628461EF04DF900E090
:10F8F0000224204604B0BDE8F0810224F9E70000AC
:10F9000070B5044601230373437B012B15D90123F2
:10F91000837304F1080528461DF0B7FF0646B0B909
:10F92000A37B6BB128461DF02CFF002808DC606A21
:10F930008268002101F0DCF8EBE700238373E8E73D
:10F94000044B63602046FFF7DDFB304670BD0326A5
:10F95000FBE700BF1802002008B5034B4360FFF728
:10F96000E5FB002008BD00BF18020020A9B130B59A
:10F97000D9B0134605460A464FF4B071684600F008
:10F9800063F8021E0BDB931CB3F5B07F09D8694600
:10F990002846FFF781FF59B030BD03207047032090
:10F9A000F9E70320F7E708B50830FFF7DFFF08BDE8
:10F9B00010B40024146017E0202B14D00A2B12D0AE
:10F9C000092B10D00D2B0ED0086001240BE03D2B2D
:10F9D0001AD0202B05D00A2B03D0092B01D00D2BD8
:10F9E00001D1002303700130037813B3032CFAD83C
:10F9F0000FF2040C5CF824F0B9F90000CFF9000014
:10FA000011FA000027FA0000002303700224EAE73D
:10FA1000202BE8D00A2BE6D0092BE4D00D2BE2D026
:10FA200010600324DFE7203B5E2BDCD9002303704A
:10FA3000D9E7023CE4B2012C02D8002010BC704788
:10FA40004FF0FF30FAE700BF2DE9F843064689463C
:10FA500090461F461046FFF741F80546E7B1384685
:10FA6000FFF73CF80446631902334B4516DC2A467F
:10FA700041463046FEF794FF05F101083D237355DA
:10FA80002246394606EB0800FEF78AFF04EB080021
:10FA900000233354BDE8F8830024E4E74FF0FF303F
:10FAA000F8E7000070B5ADF5027D06460DF1C7051B
:10FAB00000248DF8C740BC22214601A8FEF798FF1C
:10FAC000244B009304238DF8043072AA0292402242
:10FAD0000A92214A0C928DF8343032AB0E934FF4D7
:10FAE000807216921D4A189205228DF864201A958C
:10FAF0008DF8C8418DF8C840694606F11C0003F036
:10FB000052F8E8B99DF8C8313BB19DF8C83093B1BF
:10FB100032A972A8FFF7A6FDB8B90020FFF7D8FDFB
:10FB20000346A0B99DF8C7205AB1FFF773FB0346FF
:10FB300038B1032305E0002172A8FFF793FDEBE73E
:10FB4000032318460DF5027D70BD0323F9E7032357
:10FB5000F7E700BF6C2D0300BC190300C0190300B8
:10FB6000F0B5E9B004465C22002101A8FEF740FF91
:10FB7000184B009304238DF8043058AB02934023B4
:10FB80000A93694604F11C0003F00DF8D8B9054644
:10FB90004FF4807218A958A8FFF77EFD0646B0B151
:10FBA00003220D4920461CF046FE07463046FEF76C
:10FBB00095FF0246314620461CF03DFE50EA070301
:10FBC00002D0022500E00325284669B0F0BD0325D8
:10FBD000FAE700BF6C2D0300BC19030008B502480A
:10FBE00004F0E2F9002008BD28020020F0B4044629
:10FBF00000E03446114BA3FB0153DB081D4603EB29
:10FC000083035E008B1B661C303323702946002D56
:10FC1000EFD1234609E0054615F8016B194611F8A6
:10FC2000017907701E7028460B468342F3D8627034
:10FC30000023A370A01CF0BC704700BFCDCCCCCC7F
:10FC400008B50023084A1380084A1380084B196836
:10FC5000084B1868FDF7ABFA074B1B6803B19847D0
:10FC6000034B00221A6008BD641900207A19002095
:10FC700068190020701900205419002008B50B4B9A
:10FC80001B7873B90A4B1B784BB90A280CD00D2886
:10FC900008D00122074B1A6000F072FD01E000F06D
:10FCA0006FFD08BD0022F5E70022F3E79434002041
:10FCB000953400209034002070B506460D4600248F
:10FCC000AC4207DA305DFFF7D9FFB0F1FF3F01D05A
:10FCD0000134F5E770BD000008B50D4B1B880D4AD7
:10FCE00012881344FE2B0EDCC15471B10A4B1B6801
:10FCF0002BB9074A138801331380012004E008461A
:10FD000000F03EFDF5E7002008BD0120FCE700BF44
:10FD1000641900207A1900203402002070B50646CC
:10FD20000D460024AC4207DA305D00F029FDB0F149
:10FD3000FF3F01D00134F5E770BD0000114B198879
:10FD400001B9704710B584B045F61B33009300230A
:10FD500001930293ADF80C3049B90B49094A0B885D
:10FD6000108803440B800023138004B010BD6C4640
:10FD700043220DF10200FFF739FF011B2046FFF778
:10FD8000CDFFEAE77A19002064190020114B198889
:10FD900001B9704710B584B045F61B3300930023BA
:10FDA00001930293ADF80C3049B90B49094A0B880D
:10FDB000108803440B800023138004B010BD6C46F0
:10FDC00044220DF10200FFF711FF011B2046FFF74F
:10FDD000A5FFEAE7641900207A19002030B585B044
:10FDE0000446174B1B8805E0607804F8010B00F00F
:10FDF000C7FC2B465D1E012BF6DC114B1B880BB993
:10FE000005B030BD202000F0BBFC0D4B198845F635
:10FE10001B330093002301930293ADF80C3021B9FA
:10FE2000074A1388013B1380EAE76C4644220DF130
:10FE30000200FFF7DBFE011B2046FFF76FFFEFE735
:10FE40007A19002008B5054B1B8803B908BD044B7F
:10FE50001B881844FFF7C2FFF8E700BF7A1900209B
:10FE6000641900205E4B1B6813F0040F44D023F08C
:10FE700004035B4A1360A0F13002092A31D9594BBF
:10FE800001221A6010B584B0462800F09C805ED82C
:10FE900043286CD0442840F08F80534B1B88514A34
:10FEA00011688B42C0F088808AB2504C2088104480
:10FEB00020809B1A4C4A138045F61B330093002385
:10FEC00001930293ADF80C30002975D06C464422A2
:10FED0000DF10200FFF78AFE011B2046FFF71EFF0F
:10FEE0006AE043F008033E4A136030383D4B186027
:10FEF0003F4B00221A60704713F0080FC2D0A0F1E8
:10FF00003002092A14D813F0100F08D038490A68B3
:10FF100002EB820253000344303B0B6070473149CF
:10FF20000A6802EB820253000344303B0B607047C7
:10FF30003B2804D023F01803294A1360A2E713F0EA
:10FF4000100FF7D143F01003254A1360704748287B
:10FF50002FD07E2830D1234B1B68032B37D0042BA6
:10FF600039D0012B28D10846FFF710FF24E01F4BA2
:10FF70001B881C4A11688B421ED38AB29B1A1B48ED
:10FF80000380194B188802441A8045F61B330093EE
:10FF9000002301930293ADF80C3069B16C46432203
:10FFA0000DF10200FFF722FE011B2046FFF7B6FE0F
:10FFB00002E00846FFF7EAFE094A136823F002034D
:10FFC000136004B010BD0846FFF7B8FEF4E708461A
:10FFD000FFF738FFF0E70846FFF7B0FEECE700BF99
:10FFE0006C19002038190020641900207A190020AB
:10FFF0003C190020134B1B8803B9704730B585B0FE
:020000021000EC
:10000000044645F61B330093002301930293ADF899
:100010000C306D46442201210DF10200FFF7E6FD90
:10002000411B2846FFF77AFE064A1388013B9BB224
:10003000138005490A8801320A80E018FFF7CEFED6
:1000400005B030BD641900207A19002010B584B0C5
:10005000134B198879B90023114A1380114A138070
:100060001B2000F08DFB5B2000F08AFB4B2000F092
:1000700087FB04B010BD45F61B33009300230193AA
:100080000293ADF80C300029E5D06C4644220DF106
:100090000200FFF7ABFD011B2046FFF73FFEDAE74A
:1000A000641900207A190020264B1B88264A1288E2
:1000B0001344FE2B45DCF0B585B00F460646234BB6
:1000C0001B6863B91F4A1388013313801E4B1B88BA
:1000D00003B93770344614F8015B37700AE00846FC
:1000E00000F04EFBEEE7224612F8011B2570334666
:1000F0000D4614465E1E002B07DD144B1B68002BBB
:10010000F1D0284600F03CFBEDE7104B1B680BB923
:1001100005B0F0BD0C4B198845F61B330093002346
:1001200001930293ADF80C300029F1D06C464422C3
:100130000DF10200FFF75AFD011B2046FFF7EEFD0F
:10014000E6E77047641900207A1900203402002085
:10015000014B1860704700BF3402002070B50446A0
:100160003D4B1B689D683D4B1B68043B102B55D8CD
:10017000DFE803F03A54205454095454545454546E
:10018000545454540900364B188821462844FFF72C
:100190008BFF0A2C01D0012013E0314B1B88002477
:1001A000EC540120FFF7D4FF2C4B1C60FFF748FDF7
:1001B000012006E0092805D0284B00221A60294BAF
:1001C000187870BD254B18600020FFF7C1FF244E42
:1001D000308806212844FFF767FF308821462844ED
:1001E000FFF762FF0120ECE7142805D01B4B00222B
:1001F0001A601C4B1878E4E7184B18600020FFF7D2
:10020000A7FF174E308804212844FFF74DFF3088A0
:1002100021462844FFF748FF0120D2E704280AD0EE
:1002200006280DD00F4B1B788BB10D2811D00A2852
:100230000BD00120C5E7094B04221A600120C0E75A
:10024000064B06221A600120BBE70020B9E7002018
:10025000B7E70020B5E700BF681900207419002037
:10026000641900208C34002008B50A4B5B68C3F386
:10027000080323B1084BDB884BB9002008BD0146B9
:100280000548FEF78DFA0928F8D10020F6E70B2083
:10029000F4E700BF00ED00E05819002008B50C4B52
:1002A0005B68C3F308030BB1002008BD0948FEF7E3
:1002B00017FA0028F9D00928F7D0FBF795FF00B10D
:1002C00001BE00231A4619461846FCF741FC00BF40
:1002D00000ED00E05819002038B505460C46802096
:1002E000FFF7C2FFE0B9012C02DD2B78042B18D0F8
:1002F000022C02DD6B78062B1AD0134B1B7813B936
:10030000124B1B781BB921462846FFF7D5FC002C61
:1003100004DD2C4414F8013C0A2B10D0FFF7BEFF7B
:1003200038BD6B78142BE3D1074B01221A70DFE73D
:10033000AB78092BE1D1044B01221A70DDE7024BA7
:1003400000221A70EAE700BF953400208D340020A7
:1003500008B500F0FFF908BD70B5544B1B68002BC1
:1003600000F09F800446524B1B684BB1504B1B68FA
:100370009E682046FFF7F2FE78B10025284670BD42
:100380004C48FCF74CFF4A4B18600028EED14A4B12
:1003900001221A704FF0FF35F0E74FF47A70FFF743
:1003A00063FF054600287ED1444B1B6813F0020F03
:1003B00018D113F0010F1CD1A4F120035E2B69D9D1
:1003C00031462046FFF74EFD0A2C3CD021D90D2C9A
:1003D00039D026D91B2C2AD1384A136843F001039F
:1003E000136003E031462046FFF73CFDFFF756FF60
:1003F000C4E723F00103314A136031462046FFF77A
:1004000031FD5B2CF2D12D4A136843F006031360D3
:10041000ECE7082C0DD031D8032C0ED1FFF716FED7
:10042000E4E70C2C09D10C2000F0AAF9DEE77F2CC0
:1004300003D13046FFF7DEFDD8E7214B188821466F
:100440003044FFF731FE0A2C03D11E4B1B780D2BD5
:1004500011D01C4B1C701A4B1B881B4A128813446A
:100460000022F2540D20FFF709FC0A20FFF706FCDA
:10047000FFF7E6FBBAE7134B1C70B7E7134B1B689B
:10048000002BB3D0104A1288002AAFD11049304651
:100490009847ABE70A4B188821463044FFF704FE23
:1004A000A4E700256AE74FF0FF3567E770190020E1
:1004B0006819002040190020791900206C190020CB
:1004C00064190020781900207A19002050190020A2
:1004D000D9FC000008B500F06DF908BD10B582B078
:1004E000124B1B7853B11248FCF754FE1148FEF72B
:1004F000EDF800F067F958B902B010BDFBF774FED3
:1005000000B101BE00231A4619461846FCF720FB2D
:10051000FBF76AFE00B101BE00200090064B1C688C
:10052000034602460146A047E6E700BF84350020A7
:1005300040190020581900209802002070B5044688
:100540000D4600F027F860B1094B1B680BB100267F
:1005500008E0FDF72DFF014606481FF097F9064613
:1005600000E00026294620461FF0CEF9304470BD39
:1005700090340020C81903000FB400B583B004A95B
:1005800051F8040B0191FFF7D9FF03B05DF804EBBC
:1005900004B07047014B1878704700BF3802002044
:1005A00008B5C36A984708BD42680378D1540378F8
:1005B00042880133013A1340037070470246416894
:1005C0004378C85C5188013301390B405370704740
:1005D000037842880133013A13404078984214BFAF
:1005E00000200120704702784078824214BF00202A
:1005F0000120704738B505460024AC420EDA0848A1
:10060000FFF7F1FF50B90648FFF7D8FF054B1B680D
:10061000DA6A0146184690470134EEE738BD00BF5C
:10062000A4190020D019002008B50548FFF7DBFF0A
:1006300018B90348FFF7C2FF08BD4FF0FF30FBE7D2
:10064000A4190020C37E03F00603022B00D07047DC
:1006500070B50E460446FDF76DFF054602E0FDF756
:1006600069FF05460C48FFF7B3FF68B1636A20468F
:1006700098472846FDF764FFFCF72AFB0028EED0D8
:100680000120FDF7BFFEEAE731460348FFF78CFF84
:100690002846FDF755FF70BDA419002010B50C4683
:1006A0000C48FFF795FF40B921460A48FFF77CFF49
:1006B000094B1B783BB1002010BD084B01221A707A
:1006C0004FF0FF30F8E7FCF729FE0349FCF76FFD18
:1006D0000020F1E77C19002098340020CC1900207C
:1006E00010B5184B186800280BDBC0B2FFF734FEBA
:1006F000002806DA24E0134B1878FFF72DFE0028B7
:100700001EDB1148FFF76FFFB0B9FDF713FF04467A
:100710000D48FFF753FF0B4B18602046FDF710FF05
:100720000A4B1B78002BE6D0084B00221A70084BAE
:100730001868836A9847DEE7024B4FF0FF321A6071
:1007400010BD00BF3C0200207C190020CC19002005
:10075000D019002010B5FDF7EDFE0446064B1B68CE
:100760002BB1054B054A1A602020FFF743FF2046B6
:10077000FDF7E6FE10BD00BFD4190020A105010061
:1007800038B50446094B1B6873B10A2803D10D2103
:10079000074A10689847064D044B1B68E1B2286869
:1007A00098472868436A9847204638BDD4190020E6
:1007B000D0190020024B1868003018BF0120704784
:1007C000D019002000B587B00023CDF80630CDF851
:1007D0000E30CDF81230ADF816304FF4E1330093FF
:1007E00008238DF8043001238DF80530134B029354
:1007F000134B0393134B20225A8013495960134B18
:1008000013491960134B5A80134A5A60134B144A08
:100810005A60144B1B681BB1002007B05DF804FB45
:100820006A464FF0FF311048FCF78AFC0D4B186008
:1008300008B10020F1E74FF0FF30EEE72906010094
:100840009D060100A4190020AC190020D419002035
:10085000450601007C1900208419002098340020EE
:10086000E1060100D0190020D019030010B40C4B90
:100870001C688CB100230B4A12689A4207DD03EB17
:1008800043018A00A25C824203D00133F3E74FF0B8
:10089000FF33184610BC70474FF0FF33F9E700BF35
:1008A000A8340020AC3400200023134A12689A4276
:1008B0001FDD30B404E001330F4A12689A4215DD9F
:1008C0000E4A126803EB4304A1000A4444785178AD
:1008D0008C42F0D14568816829445468926822446A
:1008E0008C42E8D29542E6D2012000E0002030BCE4
:1008F00070470020704700BFAC340020A8340020AF
:1009000070B500240AE0FBF76FFC00B101BE0023C4
:100910001A4619461846FCF71BF90134052C26DC4B
:10092000630023449A00124BD618985CFFF79EFF91
:10093000B0F1FF3FF1D10F4B1D68092DE3DC3046CC
:10094000FFF7B2FF0028E8D10B4B1B6805EB45050C
:10095000AA00134404EB44029100054A0A4407CA62
:1009600083E80700034A136801331360D5E770BDBD
:1009700088290300AC340020A834002070B586B06C
:1009800005460E4614460023136001F041F801A805
:1009900001F05EF82368AB4229DA022101A801F0D8
:1009A0001AF8034610F10F0F03D020B1184606B015
:1009B00070BD0023FAE703A901A801F019F8034666
:1009C0000028F3D1236803EB43039A00B3189DF882
:1009D0000C10B1549DF80D205A70DDF80E205A60AD
:1009E000DDF812209A60236801332360D2E74FF0CC
:1009F000FF33DBE738B50B4B1C6864B10D46FFF7DE
:100A000035FFB0F1FF3F09D000EB400083001C44EC
:100A10002C60002038BD6FF00600FBE76FF003008C
:100A2000F8E700BFA83400202DE9F04784B00F4656
:100A300016465FFA80F903A94846FFF7DBFF8046B8
:100A400018B1404604B0BDE8F08700233B60039B2B
:100A500058781DF04DFA0546444603E03B680133E3
:100A60003B600134EB68A342EBDD2B68D3F80CA0AC
:100A700001AB02AA21462846D04703994B68029A47
:100A80009342EED889680B449A42EAD2002EE5D010
:100A900086F80090039B5B7873707260019BB36073
:100AA0000C36DBE738B584688C4208D3CD18AC42ED
:100AB00008D34468214440781DF05BFA38BD4FF0FC
:100AC000FF30FBE74FF0FF30F8E738B584688C4221
:100AD00008D3CD18AC4208D34468214440781DF0B7
:100AE00073FA38BD4FF0FF30FBE74FF0FF30F8E707
:100AF00083688B4209D310B58C18A34208D343688E
:100B0000194440781DF09AFA10BD4FF0FF3070473D
:100B10004FF0FF30F8E708B540781DF01AFA08BD2D
:100B200008B540781DF01DFA08BD10B50C4600232D
:100B30000B708268416840781DF035FB002802DBAD
:100B4000012801D0002010BD012323700020FAE706
:100B500010B54468214440781DF0F4FA10BD70B11E
:100B600008B5012801D1022008BDFBF73DFB00B10B
:100B700001BE00231A4619461846FBF7E9FF01207B
:100B80007047000010B584B01A4B1B7893B11DF06C
:100B9000CCF9C8B9184B194A1A60194B06221A60C9
:100BA00003AA18490A20FFF7E9FE08B9039BC3B955
:100BB00004B010BDFBF718FB00B101BE00231A46BC
:100BC00019461846FBF7C4FFFBF70EFB00B101BE48
:100BD000002000900C4B1C68034602460146A047CB
:100BE000D8E7054A07491160054A1360FFF788FEF8
:100BF000DEE700BF84350020A834002088290300E8
:100C0000AC340020D81900209802002010B598B00C
:100C10000446012905D011491148A047002018B009
:100C200010BD202110A81DF073FD011E0EDC6946C9
:100C30000C48A0470C4B19680C48A0470C4B19688E
:100C40000C48A0470C490D48A047E4E740236A46FA
:100C50000DEB0300FEF7DCFCE9E700BF0C350020DC
:100C6000FC190300D819030044020020E019030016
:100C700040020020E8190300B0340020F0190300FE
:100C8000012832D170B588B01D4614460E681B4944
:100C90003046FDF7D3FEA8B119493046FDF7CEFE28
:100CA000E0B118493046FDF7C9FED8B116493046C3
:100CB000FDF7C4FEE8B115493046FDF7BFFED0B9D7
:100CC00013480DE0202168461DF022FD011E0EDDB7
:100CD0002B4622466846FEF79BFC01E00D4B186848
:100CE00008B070BD0C4B1868FAE700207047002070
:100CF000F6E70A48F4E70020F2E700BF081A03000D
:100D0000101A0300141A0300181A0300201A030013
:100D1000B034002044020020400200200C350020A6
:100D200001280ED110B514460B4608491868FDF786
:100D300085FE40B94023064A06212046FEF763FBA4
:100D400010BD0A2070470A20FAE700BF181A0300F6
:100D50000C35002030B58BB05A2200211448FDF725
:100D600047FE684600F074FE002409E0104D0123A0
:100D70002A19202102A81BF0A3FA2C3400232B559A
:100D80000121684600F027FE78B904F12D035A2BA3
:100D90000BD802A9684600F035FE30B9002CE5D02A
:100DA000034B3A221A550134E0E70BB030BD00BFC7
:100DB000B034002010B582B0104B1B783BB1104806
:100DC000FEF7DEFA68B9FFF7C5FF02B010BDFBF70A
:100DD0000BFA00B101BE00231A4619461846FBF76C
:100DE000B7FEFBF701FA00B101BE00200090054BF1
:100DF0001C68034602460146A047E4E7843500200C
:100E000048020020980200200023074A12689A42F4
:100E100006DD064A32F93320824203D00133F4E77B
:100E20004FF0FF3318467047501A0020541A002024
:100E3000054B1B681BB1834203D0DB68FAE7002037
:100E400070470120704700BF68020020022801D8C7
:100E5000002070470C207047438B2BB18B4201D28E
:100E600001207047002070470020704700B583B014
:100E700003690193019B0BB1019B984703B05DF897
:100E800004FB0000000000002DE9F04F87B006468B
:100E9000894615469A46109C1846FFF7D7FF00284A
:100EA00040D13368002B6FD07368002B6FD00F2DAB
:100EB00000D90F251B68022B3ED0337EAB4269D888
:100EC000484600F0E1FAA84267D8FDF733FB364BFD
:100ED000D3F8008008F101021A60FDF731FB002110
:100EE00002A8FDF7A3FA834648B9DDE90201CDE97E
:100EF00000012BA3D3E9002382428B4120DBFDF7C5
:100F0000CFFA20606160657384F80C90C4F80880A3
:100F1000A37B6AF303036FF30713A373584607B069
:100F2000BDE8F08FFBF760F900B101BE00231A465F
:100F300019461846FBF70CFE1C4B01221A70BCE741
:100F4000DDE900677901720141EAD663961B63EB24
:100F50000707790241EAD6517002DDE90023121831
:100F60004B411F46990141EA92619001821A61EB5F
:100F70000703DDE90067B6185F41049BF11847EBF2
:100F8000E37221606260BEE74FF0FF3BC6E74FF0BF
:100F9000FF3BC3E74FF0FF3BC0E74FF0FF3BBDE730
:100FA0007FC18556000000004C3500205C1A0020EF
:100FB00008B50D4B1B7863B100230C4A13700C4A23
:100FC000136052600B4A03211171136000F02CFA78
:100FD00008BDFBF709F900B101BE00231A46194606
:100FE0001846FBF7B5FD00BF843500205C1A0020D1
:100FF000680200204C35002008B1C0687047014BE2
:101000001868704768020020042811D006280DD007
:1010100050B108B5FFF7F8FEB0F1FF3F0AD0064B1C
:1010200003EBC000406808BD04487047044870479F
:10103000044870470020F6E7541A0020441A0300C1
:10104000581A03004C1A0300837B13F0100F01D1D0
:101050000F207047132070472DE9F04389B00646F2
:101060000F4690469946BDF844502946FFF7F4FED6
:10107000044618B1204609B0BDE8F08303AB0093E5
:101080004B46424639463046FFF7FEFE04460028EE
:10109000F0D173681C692B46109A03A93046A0470B
:1010A00004460028E6D105993046FFF7DFFEE1E768
:1010B00008B54368DB69984708BD000030B589B0C2
:1010C00006910023079306AA04924FF0FF344FF0D5
:1010D000FF35CDE90045029303936A460549FFF7C2
:1010E000E7FF079B13B1002009B030BD4FF0FF3080
:1010F000FAE700BFE712010030B587B00C469DF853
:1011000028102E4D2D783DBB0F2900D90F212060CE
:101110006260A36021760023236163832046FFF78A
:1011200087FE38B90023E360254B5A68146004F148
:101130000C025A6063689B6A1BB3204698470546B9
:10114000F8B11F4B1A68A24211D1D3681C4A136030
:10115000E3B913465A6019E0FBF746F800B101BE47
:1011600000231A4619461846FBF7F2FC1A46D368C4
:10117000A342FBD1DB68D36043B90C32104B5A60F9
:1011800004E063681B68022B03D00025284607B0E3
:1011900030BD01A92046FFF791FF054608B10025A3
:1011A000F4E7FDF7C7F9039B064A1268934202D39E
:1011B0000133044A1360FDF7C3F9E7E75C1A002026
:1011C000680200204C35002010B582B01446009112
:1011D00013690193C2F810D04368DB69024998474C
:1011E000019B236102B010BD4B12010030B583B0EA
:1011F00044686468BDF818500095A04703B030BD3E
:1012000070B582B005460E4614460F2300930023A6
:10121000FFF7ECFF0F2815D1A37B13F0100F02D1BD
:10122000002002B070BD042300930F23E218314662
:101230002846FFF7DBFF042801D10020F1E76FF01B
:101240000400EEE76FF00400EBE72DE9F04188B011
:1012500080460C4616461D460F6903AA3146FFF725
:10126000CFFF034698B9A168059A91420FD803A809
:10127000FFF7EAFE281A80B27B6823613D68009080
:10128000334603AA21464046A8470346276118462D
:1012900008B0BDE8F081F0B589B005460E461746A6
:1012A0001C4603AAFFF7ACFF024610B1104609B076
:1012B000F0BD03A8FFF7C8FE0319BDF8382000925F
:1012C0009BB23A4631462846FFF790FF0246EDE7CB
:1012D00008B543685B6A984708BD0023C0F80F3023
:1012E0006FF00B00704730B583B015460C6922686B
:1012F0000F23009300232946FFF778FF0E2801DD16
:10130000012363602068837B13F0100F02D101205A
:1013100003B030BDFFF7E1FF10B110F10C0FF6D1B3
:1013200001236360F3E70220704702207047022028
:101330007047000010B582B00446017B407B2268F4
:101340006368019000910A48FFF716F9A37B13F038
:10135000100F04D10748FFF70FF902B010BDE17B71
:10136000227C637CA07C00900348FFF705F9F1E73D
:10137000941A0300C41A0300B41A030070B594B0A1
:101380000A46014605A81BF03BF80DAD2B4611AAF5
:10139000002105A81BF035FD084B1E6801AC95E83F
:1013A0000F0084E80F00214630461CF0A7F9012108
:1013B0000348FEF791FF002014B070BDEC2C030031
:1013C000E424030070B50C4615461E46FFF782F86C
:1013D00058B10B4B1B6853B1A37B03F00F03012BD8
:1013E00009D031462846FEF777FF002070BD204621
:1013F000FFF7A0FFF0E7B1B22846FFF7BFFFF4E721
:101400009034002070B505460C4616460846FFF796
:101410001BFE331A221821462846FFF7D3FF70BD62
:1014200000487047601A002010B582B0114B1B783D
:101430004BB100230093104A10491148FFF75CFE9E
:1014400058B902B010BDFAF7CFFE00B101BE0023BB
:101450001A4619461846FBF77BFBFAF7C5FE00B1A2
:1014600001BE00200090074B1C680346024601465F
:10147000A047E6E784350020601A0300601A0020C8
:101480008C1A0300980200204308054AD35C10F030
:10149000010F01D01809704703F00F00704700BF1B
:1014A0007C1A002010B4084B1B6800243BB15A7A08
:1014B000824204D002D81C461B68F7E7002301B122
:1014C0000C60184610BC7047C01B002010B582B0DD
:1014D000044601A9407AFFF7E5FF019B43B11B6871
:1014E0002360019B1C60637AFF2B06D002B010BD05
:1014F000034B1A6822601C60F5E7024B1C60F5E79D
:10150000C01B0020FC1A002008B50548FCF77EFB34
:10151000034618B10022026042608260184608BD8E
:101520005435002008B5134BC01A134AA2FB0032F1
:10153000D2080F2A0AD8104BA3FB0013DB0803EBD9
:101540004303990088420BD1D0B208BDFAF74CFE94
:1015500000B101BE00231A4619461846FBF7F8FAF7
:10156000FAF742FE00B101BE00231A46194618469A
:10157000FBF7EEFA001B0020ABAAAAAAC9B12DE91D
:10158000F04188461D4616460746FFF7BDFF044654
:1015900090B1FFF7C7FFC4F8048020726772A6728B
:1015A0002046FFF793FF55B1237A2B700020BDE84A
:1015B000F0816FF0010070474FF0FF30F7E7002037
:1015C000F5E710B582B0847A944203D90023184617
:1015D00002B010BD4068BDF814400194049C009412
:1015E000FFF73AFD03460028F1D06FF00403EEE761
:1015F0002DE9F04383B0BDF82860FF282DD01F46A9
:101600009146884605460021FFF74CFF044688B105
:1016100034B3637AAB420BD1019600974B464246F6
:1016200029462046FFF7CDFF0346D0B92468EFE7EF
:10163000002316E00D4B1C6800E024685CB10196A5
:1016400000974B46424629462046FFF7BAFF03461D
:101650000028F2D005E0002303E06FF0010300E072
:101660000023184603B0BDE8F08300BFFC1A002039
:101670002DE9F04105460E4617469846084C20468F
:1016800000F085FE43463A4631462846FFF776FF8E
:101690000546204600F0A5FE2846BDE8F08100BFC3
:1016A000C41B00202DE9F04182B005460E461746C6
:1016B00098460A4C204600F02AFEBDF820300093E0
:1016C00043463A4631462846FFF792FF05462046F4
:1016D00000F04AFE284602B0BDE8F081C41B00209D
:1016E0000CB430B5A5B004460D4628AB53F8042B16
:1016F0002393802103A81EF0DBF87F2800DD7F20E4
:1017000080B2009003AB002229462046FFF7CAFFB3
:1017100025B0BDE8304002B07047000010B582B07F
:10172000284B1B78E3B1284B0093284B0C22102147
:101730002748FCF727FAE8B90023264A1360264A0F
:101740001360264800F05CFE08BBFFF769FE00232B
:101750001A460146FF20FFF78BFF28BB02B010BDE1
:10176000FAF742FD00B101BE00231A461946184699
:10177000FBF7EEF9FAF738FD00B101BE002000904A
:10178000174B1C68034602460146A047D4E7FAF708
:101790002BFD00B101BE00200090114B1C680346D8
:1017A00002460146A047D0E7FAF71EFD00B101BE90
:1017B000002000900A4B1C68034602460146A047E1
:1017C000CCE700BF84350020C81A0300001B0020AE
:1017D00054350020C01B0020FC1A0020C41B002030
:1017E0009802002030B583B08578214B1B689D425C
:1017F00032DA044605EB4502930001A91D4AD05C8C
:10180000FFF7F8F858BB6268C2B905EB4505AA00B6
:10181000184B13445B686360616801988368083BF8
:10182000994210D3A378591C114A1268914219DACF
:1018300000226260A1706FF0050315E06378134425
:1018400002336360E8E702232246FFF72BF90346E1
:1018500050B16FF0040307E06FF0010304E06FF094
:10186000040301E06FF00E03184603B030BD00BF63
:10187000041C0020EC1B002030B585B005460C464A
:1018800003A9FFF7B7F8E8B903988168082301AA0C
:101890000839FFF707F90146B8B9029A114B9A4285
:1018A00016D19DF80630022B15D1BDF80420039BFC
:1018B0009B689A4212D89B1A25706360A260084602
:1018C00005B030BD6FF00401F9E76FF00401F6E7F1
:1018D0006FF00801F3E76FF00B01F0E76FF008011C
:1018E000EDE700BF69A2B23B08B50023114A1268B8
:1018F0009A4208DD03EB43018A000F498A5C824269
:1019000011D00133F2E7012A11DC02EB420293000D
:1019100009491944FFF7B0FF034630B905490A6881
:1019200001320A6001E06FF00A03184608BD4FF06B
:10193000FF33FAE7041C0020EC1B002008B5837875
:101940000D4A126893420ADA03EB43039A000B4BE9
:10195000985CFFF74FF8034658B9184608BDFAF7E8
:1019600043FC00B101BE00231A4619461846FBF796
:10197000EFF86FF00403F0E7041C0020EC1B0020DC
:1019800070B582B006460C46154601A9FFF7D6FF92
:10199000034610B1184602B070BD2A460021204609
:1019A000FDF726F873787168AB42A8BF2B46224634
:1019B00002310198FFF776F803460028EAD06FF06D
:1019C0000403E7E710B504462046FFF70BFF10F1CC
:1019D000060FF9D010BD38B504460D462046FFF776
:1019E000F1FF024610B92378AB42F7D1104638BD5B
:1019F00008B50A22FFF7C4FF08BD08B50122FFF7AA
:101A0000BFFF08BD08B52022FFF7BAFF08BD0000E0
:101A100008B50D4B1B784BB90B4B01221A700B4BC1
:101A20001B7823B10020FFF75FFF50B108BDFAF724
:101A3000DBFB00B101BE00231A4619461846FBF72E
:101A400087F800F00DF8F1E7E81B0020843500204E
:101A500010B50446FFF7DCFF00232360636010BD70
:101A600000B585B001A8FFF7F3FF04210DEB0100DD
:101A7000FFF7B1FF034610F10F0F04D028B118464D
:101A800005B05DF804FB0023F9E703A901A8FFF7FF
:101A9000B4FF03460028F2D19DF80C00FFF724FFA5
:101AA00003460028E1D010F10B0FDED0E7E700007D
:101AB000012901D00020704710B584B004460C23E2
:101AC00001AA09490320FDF74DFD01460748A0473B
:101AD0000C2301AA06490A20FDF744FD01460548EA
